:100000000C9463000C948B000C948B000C943E04B5
:100010000C943E040C943E040C948B000C948B00C6
:100020000C948B000C948B000C948B000C948B0024
:100030000C948B000C948B000C948B000C948B0014
:100040000C94E9080C948B000C9460090C943A0908
:100050000C948B000C948B000C948B000C948B00F4
:100060000C9449060C948B0000000000240027002B
:100070002A000000000023002600290000000008DC
:10008000000201000003040700000000000000005F
:10009000010204081020408001020408102001021F
:1000A0000408102000000000250028002B00040494
:1000B0000404040404040202020202020303030310
:1000C0000303E20DC70D11241FBECFEFD8E0DEBF42
:1000D000CDBF12E0A0E0B1E0E4E8F6E202C0059096
:1000E0000D92AC32B107D9F724E0ACE2B2E001C026
:1000F0001D92A034B207E1F710E0C2E6D0E004C0E0
:100100002197FE010E942A13C136D107C9F70E9428
:10011000820A0C9435130C94000080E090E0892B47
:1001200029F00E94510881110C9400000895CB0120
:1001300008957F928F929F92AF92BF92CF92DF925B
:10014000EF92FF920F931F93CF93DF93EC0149013E
:100150005A018B01C12CD12C7601C814D904EA04B0
:10016000FB0484F5F80171908F018F8580FF0BC02F
:10017000E881F9810084F185E02D20E144E060E030
:1001800070E0CE010995EB85FC858D859E85E8178D
:10019000F90738F470828B859C8501969C878B8744
:1001A0000BC0E881F981672D70E0028CF38DE02DA2
:1001B000CE010995019649F02FEFC21AD20AE20A40
:1001C000F20ACBCFB401C50102C0B601C701DF916D
:1001D000CF911F910F91FF90EF90DF90CF90BF9044
:1001E000AF909F908F907F900895CF93DF93EC0115
:1001F000E881F9810288F389E02D09958F3F2FEF7F
:10020000920731F02D813E812F5F3F4F3E832D833A
:10021000DF91CF9108958FEF9FEF089560E070E038
:10022000CB01089580E090E00895CB010895CF932D
:10023000DF93EC0188899989DC01ED91FC910480C0
:10024000F581E02D0995892BA9F388899989DC012D
:10025000ED91FC910680F781E02DDF91CF9109941B
:10026000CF93DF93EC0188899989DC01ED91FC91B2
:100270000480F581E02D0995892BA9F38889998956
:10028000DC01ED91FC910084F185E02DDF91CF91AF
:100290000994AF92BF92CF92DF92EF92FF920F93A9
:1002A0001F93CF93DF9300D000D0CDB7DEB78C0182
:1002B0005B01C12CD12C7601F80180899189DC0188
:1002C000ED91FC910680F781E02D29833A834B83E1
:1002D0005C83099529813A814B815C818F3F71F064
:1002E000C216D306E406F5064CF4D5018D935D01E4
:1002F000BFEFCB1ADB0AEB0AFB0ADECFC701B60160
:100300000F900F900F900F90DF91CF911F910F9151
:10031000FF90EF90DF90CF90BF90AF900895DC01F9
:1003200050968D919C915197DC01ED91FC91048048
:10033000F581E02D099480E090E0089580E090E060
:10034000089580E090E0089580E090E00895089599
:10035000CF93DF93C0913303D0913403E881F981C7
:100360000480F581E02DCE010995892BB9F3E88150
:10037000F9810680F781E02DCE01DF91CF910994BC
:100380001F93CF93DF93182FC0913303D091340381
:100390008A3041F4E881F9810190F081E02D6DE02F
:1003A000CE010995E881F9810190F081E02D612F5E
:1003B000CE01099521E030E0019711F420E030E012
:1003C000C901DF91CF911F91089508958FEF9FEF9D
:1003D00008958FEF9FEF089580919A0290E0919594
:1003E00081959109089585ED8093BC008091BC00B2
:1003F00084FDFCCF10927402089540914E02262F86
:1004000030E0240F311D21323105DCF420917402DB
:100410002430C9F4FC0180E090E0861758F4309154
:100420004E022191DC01A45DBD4FA30FB11D2C93A1
:100430000196F3CF80914E02680F60934E0280E0E8
:10044000089581E0089582E00895CF93DF9300D06E
:10045000CDB7DEB7CB01642F49835A830E94FD01DB
:100460004981842F5A81952F0F900F90DF91CF9162
:100470000895CF93DF931F92CDB7DEB7698361E014
:10048000CE0101960E94FD0181E090E00F90DF9186
:10049000CF9108950F931F93CF93DF938C01C0E00A
:1004A000D0E0F80186819781C817D907A8F49E018A
:1004B000220F331FD8011296ED91FC911397E20F92
:1004C000F31F80819181DC01ED91FC910084F18525
:1004D000E02D09952196E5CFDF91CF911F910F91E6
:1004E0000895EF92FF920F931F93CF93DF938C01A8
:1004F0007B01C0E0D0E0F80186819781C817D90759
:10050000B0F49E01220F331FD8011296ED91FC9199
:100510001397E20FF31F80819181DC01ED91FC9133
:100520000190F081E02DB70109952196E4CFDF918C
:10053000CF911F910F91FF90EF9008950895CF9262
:10054000DF92EF92FF92CF93DF93EC0189852FE842
:1005500032EC45E75DE38823D1F06D817E818F81A8
:1005600098850E9462126B017C0120E030E040E837
:100570005FE30E94FD1287FD19C080E090E0A0E8D3
:10058000BFE38D839E83AF83B88719861AC06D81C0
:100590007E818F8198850E9461126B017C0120E031
:1005A00030E0A9010E94271118162CF4CD82DE82BA
:1005B000EF82F88606C01D821E821F82188681E0A7
:1005C0008987DF91CF91FF90EF90DF90CF900895D2
:1005D00008950E9430130F931F93CF93DF938C01E4
:1005E000EB016F3F8FEF780719F480E090E00FC0C8
:1005F0006A3031F46DE0F801808991890E943309F5
:100600006C2FF801808991890E943309CE01DF9116
:10061000CF911F910F9108958F929F92BF92CF9289
:10062000DF92EF92FF920F931F93CF93DF9300D04F
:1006300000D0CDB7DEB78C014B01C12CD12C760197
:10064000C216D306E406F50644F5F401B1904F0155
:10065000FAE0BF120EC06DE0F8018089918929830C
:100660003A834B835C830E9433095C814B813A81DE
:1006700029816B2DF8018089918929833A834B83E5
:100680005C830E943309FFEFCF1ADF0AEF0AFF0AEB
:100690005C814B813A812981D3CFCA01B9010F9086
:1006A0000F900F900F90DF91CF911F910F91FF90BE
:1006B000EF90DF90CF90BF909F908F9008950C9413
:1006C00088100C948810089508950C948810DC010B
:1006D000ED91FC91369720813181820F931F0C940C
:1006E0006503FB0120813181FC0131832083FB0103
:1006F00042815381F901369720813181FC01E20F5B
:10070000F31F51834083089526E631E0FC013183D5
:10071000208320E731E0318F208F66E771E00C9471
:100720007103DC01ED91FC91369720813181820FBC
:10073000931F0C948403CF93DF93EC010E948403F6
:10074000CE01DF91CF910C948810DC01ED91FC91EA
:10075000369720813181820F931F0C949B030C9458
:100760008810089508950C948810DC01ED91FC9197
:10077000369720813181820F931F0C94B303FB01C4
:1007800020813181FC0131832083FB01428153812F
:10079000F901369720813181FC01E20FF31F51836B
:1007A000408308952EED31E0FC013183208328EE53
:1007B00031E0358B248B6EEE71E00C94BF03DC01CD
:1007C000ED91FC91369720813181820F931F0C941B
:1007D000D203CF93DF93EC010E94D203CE01DF91CD
:1007E000CF910C948810DC01ED91FC91369720811B
:1007F0003181820F931F0C94E9030C948810FC0143
:1008000086E192E09183808386819781892B11F024
:1008100017821682828193810C948810CF93DF9384
:10082000EC010E94FF03CE01DF91CF910C94881060
:100830000C948810FC01848DDF01A80FB11DA35A10
:10084000BF4F2C91848D90E001968F739927848FF0
:10085000A689B7892C93A089B1898C9180648C93E7
:10086000938D848D981306C00288F389E02D8081D2
:100870008F7D808308950895089508951F920F92A3
:100880000FB60F9211240F900FBE0F901F90189566
:100890000F931F93DC0117968C911797882361F0B3
:1008A000489FA0011124452F289F90011124232F38
:1008B000089F80011124012F1D968C911D971A9677
:1008C0009C911A971896ED91FC911997891308C07D
:1008D000CB01880F991F680F791F6E0F7F1F0AC009
:1008E000660F771F660F771F6E0F7F1FFB01E80FE4
:1008F000F11D10821A968C911A97FB01E80FF11DD9
:1009000040831B968C911B97FB01E80FF11D208300
:100910001C968C91FB01E80FF11D00831F910F9134
:100920000895CF92DF92EF92FF920F931F93CF9390
:10093000DF93CDB7DEB729970FB6F894DEBF0FBEB1
:10094000CDBF8C01DC0118968D919C911997892B54
:1009500009F4A3C00E94C408F801C684D784E088C3
:10096000F188DC01CB018C199D09AE09BF098C32DD
:100970009140A105B10570F3F894D80114968D91BA
:100980009C9115979A8389831896ED91FC911997FC
:100990007F01BFEFEB1AFB0A80818987F801908104
:1009A0000288F389E02DD80154968C91992309F49B
:1009B00030C09081982B98879081809589238F8370
:1009C0008F818C8388E08B8358856F8149853B813B
:1009D0002C8189819A81D701508347FD252F3A9533
:1009E0002083262F39F0441F00C0000060830000E0
:1009F00000C0F2CF38E04D9160830000019761F7AD
:100A0000D8015396FC93EE93529749873B832C83EE
:100A10003AC09081982B98879081809589238F8305
:100A20008F818E8388E08D8358856F8149853D81D4
:100A30002E8189819A81D701508347FD252F00C0DF
:100A400000C0208300C000C000C000C000C06083A0
:100A50000000262F3A9541F0441F000000C000C05E
:100A600000C000C000C0E8CF38E04D9100C06083F6
:100A700000C0019709F7D8015396FC93EE93529763
:100A800049873D832E839A83898378940E94C40882
:100A9000F80166877787808B918B29960FB6F8943B
:100AA000DEBF0FBECDBFDF91CF911F910F91FF90A1
:100AB000EF90DF90CF900895CF93DF93FB0160E03C
:100AC00070E0A0E0B0E040E050E082819381481700
:100AD000590720F59585828520853185981303C0B7
:100AE0002A0F3B1F06C0260F371FE901C90FD11D72
:100AF00018828285E901C80FD11D18828385E9011A
:100B0000C80FD11D18828485E901C80FD11D188234
:100B10004F5F5F4F13966C5F7F4FD7CFCF01DF9151
:100B2000CF910C9491048F929F92AF92BF92CF92EB
:100B3000DF92EF92FF920F931F93CF93DF93EC011D
:100B40007B01CA84DB848FEFC816D80609F047C042
:100B5000C12CD12CF70182819381C816D90608F0E7
:100B60008BC08D809E80AF80B8846C8170E080E007
:100B700090E00E942E11A50194010E948D110E9407
:100B8000CE12062F6B8170E080E090E00E942E1163
:100B9000A50194010E948D110E94CE12162F8A8108
:100BA000682F70E080E090E00E942E11A501940172
:100BB0000E948D110E94CE12462F212FB601C7012F
:100BC0000E944804C7010E9491046AE070E080E03E
:100BD00090E00E94480AEFEFCE1ADE0ABBCF6C818C
:100BE0008D809E80AF80B8841B81CA81F70182818D
:100BF0009381C816D90658F570E080E090E00E9415
:100C00002E11A50194010E948D110E94CE12062F73
:100C1000612F70E080E090E00E942E11A501940108
:100C20000E948D110E94CE12D62F6C2F70E080E0B2
:100C300090E00E942E11A50194010E948D110E9446
:100C4000CE12462F2D2FB601C7010E944804C701BE
:100C50000E9491046AE070E080E090E0DF91CF9123
:100C60001F910F91FF90EF90DF90CF90BF90AF90CA
:100C70009F908F900C94480ADF91CF911F910F9114
:100C8000FF90EF90DF90CF90BF90AF909F908F90AC
:100C900008951F920F920FB60F9211242F933F9336
:100CA0004F935F936F937F938F939F93AF93BF9374
:100CB000EF93FF938091B900887F803609F49CC040
:100CC00068F5883209F45BC090F4803109F454C0AF
:100CD00038F4882309F4F6C0883009F44DC0F6C012
:100CE000883109F44CC0803209F45DC0EFC0803413
:100CF00009F468C048F4803309F455C0883309F01A
:100D0000E5C080937302D8C0803509F44FC08835A0
:100D100009F45DC0883409F0D9C0D6C0883909F417
:100D2000C7C0A8F4883709F467C038F4883609F4D6
:100D300063C0803709F460C0C9C0883809F4B8C0FE
:100D4000803909F45FC0803809F0C0C05BC0803BC7
:100D500009F486C038F4803A09F466C0883A09F488
:100D60007FC0B4C0803C09F4A7C0883C09F4A4C08B
:100D7000883B09F48AC0AAC08091990210C0909162
:100D8000980280919702981770F5E091980281E09F
:100D90008E0F80939802F0E0E958FD4F8081809398
:100DA000BB0085EC86C0809373028EC0E0919802F0
:100DB00081E08E0F809398028091BB00F0E0E958AB
:100DC000FD4F808390919802809197026EC0E091D0
:100DD000980281E08E0F809398028091BB00F0E032
:100DE000E958FD4F80838091760281116DC081E0CA
:100DF0008093750284EA61C083E08093740210924C
:100E00007202CFCF80917202803208F051C0E0911F
:100E1000720281E08E0F809372028091BB00F0E03D
:100E2000EE5AFD4F8083BDCF85EC8093BC001092BD
:100E3000740280917202803230F4E0917202F0E02C
:100E4000EE5AFD4F10826091720270E0E091500204
:100E5000F091510282E592E009951092720236C03B
:100E600084E08093740210924F0210924E02E0913F
:100E70004C02F0914D02099580914E02811105C0FE
:100E800081E080934E0210922C02E0914F0281E0AB
:100E90008E0F80934F02F0E0E45DFD4F80818093E0
:100EA000BB0090914F0280914E02981708F479CFC1
:100EB00085E88093BC000AC085EC8093BC0010924A
:100EC000740204C0109273020E94F301FF91EF912B
:100ED000BF91AF919F918F917F916F915F914F9152
:100EE0003F912F910F900FBE0F901F90189508956E
:100EF000AF92BF92CF92DF92EF92FF920F931F9328
:100F0000CF93DF93EC01CC80DD8086010F5F1F4F14
:100F1000C016D10608F049C07B018A819B818017E9
:100F2000910760F59601275F3F4F8217930730F5D1
:100F3000A880B9803B832A83C901880F991F0E942A
:100F4000F30F99838883D50140E050E04C155D058F
:100F500091F0E881F9819A01220F331FE20FF31F0C
:100F6000309729F08D919C911197918380834F5FE9
:100F70005F4F1296EBCFC5010E9488108C819D8136
:100F80009C01220F331F8017910790F4E881F981AB
:100F9000E20FF31F309729F0D7014D915C915183F7
:100FA000408301962E5F3F4FEECF0C151D0510F4C8
:100FB0001D830C83DF91CF911F910F91FF90EF90D4
:100FC000DF90CF90BF90AF900895CF93DF9300D084
:100FD000CDB7DEB77A836983BE016F5F7F4F02961C
:100FE0000E9478070F900F90DF91CF910895089598
:100FF000CF92DF92EF92FF920F931F93CF93DF93E5
:101000006C017A018B01C0E0D0E0CE15DF0589F0DC
:10101000D8016D918D01D601ED91FC910190F08187
:10102000E02DC6010995892B11F47E0102C021969D
:10103000ECCFC701DF91CF911F910F91FF90EF90FF
:10104000DF90CF900895FC01918D828D981761F00B
:10105000828DDF01A80FB11D5D968C91928D9F5FEF
:101060009F73928F90E008958FEF9FEF0895FC019A
:10107000918D828D981731F0828DE80FF11D858D4D
:1010800090E008958FEF9FEF0895FC01918D228DE0
:10109000892F90E0805C9F4F821B91098F73992765
:1010A000089585E393E00E94450821E0892B09F427
:1010B00020E0822F0895EF92FF920F931F93CF931A
:1010C000DF93EC0181E0888F9B8D8C8D981305C098
:1010D000E889F989808185FD24C0F62E0B8D10E00A
:1010E0000F5F1F4F0F731127E02E8C8DE8120CC07D
:1010F0000FB607FCFACFE889F989808185FFF5CF23
:10110000CE010E941A04F1CF8B8DFE01E80FF11D74
:10111000E35AFF4FF0820B8FEA89FB89808180625E
:1011200007C0EE89FF896083E889F989808180643E
:10113000808381E090E0DF91CF911F910F91FF902C
:10114000EF900895CF93DF93EC01888D8823C9F049
:10115000EA89FB89808185FD05C0A889B9898C91C0
:1011600086FD0FC00FB607FCF5CF808185FFF2CF5B
:10117000A889B9898C9185FFEDCFCE010E941A0410
:10118000E7CFDF91CF9108953FB7F89480910F0397
:1011900090911003A0911103B091120326B5A89B62
:1011A00005C02F3F19F00196A11DB11D3FBFBA2FF9
:1011B000A92F982F8827820F911DA11DB11DBC0159
:1011C000CD0142E0660F771F881F991F4A95D1F71E
:1011D00008951F920F920FB60F9211242F933F93F1
:1011E0008F939F93AF93BF9380910B0390910C03C8
:1011F000A0910D03B0910E0330910A0323E0230F59
:101200002D3720F40196A11DB11D05C026E8230F3E
:101210000296A11DB11D20930A0380930B039093A6
:101220000C03A0930D03B0930E0380910F039091D4
:101230001003A0911103B09112030196A11DB11DDD
:1012400080930F0390931003A0931103B0931203A4
:10125000BF91AF919F918F913F912F910F900FBEB2
:101260000F901F901895DC01ED91FC910190F08199
:10127000E02D09941F920F920FB60F9211242F9315
:101280003F934F935F936F937F938F939F93AF930E
:10129000BF93EF93FF9385E393E00E941A04FF91BD
:1012A000EF91BF91AF919F918F917F916F915F91DE
:1012B0004F913F912F910F900FBE0F901F90189557
:1012C0001F920F920FB60F9211242F938F939F931B
:1012D000EF93FF93E0914503F09146038081E09105
:1012E0004B03F0914C0382FD12C0908180914E031C
:1012F0008F5F8F7320914F03821751F0E0914E035F
:10130000F0E0EB5CFC4F958F80934E0301C0808131
:10131000FF91EF919F918F912F910F900FBE0F90A2
:101320001F901895833081F028F4813099F0823035
:10133000A1F008958730A9F08830B9F08430D1F455
:10134000809180008F7D03C0809180008F77809393
:101350008000089584B58F7702C084B58F7D84BDE9
:1013600008958091B0008F7703C08091B0008F7D89
:101370008093B0000895CF93DF93282F30E0F901D8
:10138000E458FF4F8491F901E057FF4FD491F901E0
:10139000E255FF4FC491CC2399F081110E9492092C
:1013A000EC2FF0E0EE0FFF1FEC55FF4FA591B4912D
:1013B0008FB7F8949C91ED2FE095E923EC938FBFC4
:1013C000DF91CF910895CF93DF93282F30E0F9017B
:1013D000E458FF4F8491F901E057FF4FD491F90190
:1013E000E255FF4FC491CC2391F081110E949209E4
:1013F000EC2FF0E0EE0FFF1FEE58FF4FA591B491D8
:10140000EC91ED2381E090E021F480E002C080E0E7
:1014100090E0DF91CF910895CF93DF9390E0FC01AE
:10142000E057FF4F2491FC01E255FF4F8491882340
:1014300061F190E0880F991FFC01E859FF4FC591B9
:10144000D491FC01EC55FF4FA591B491611109C0F5
:101450009FB7F8948881209582238883EC912E236E
:101460000BC0623061F49FB7F8943881822F809569
:1014700083238883EC912E2B2C939FBF06C08FB7BC
:10148000F894E8812E2B28838FBFDF91CF910895A8
:101490008F929F92AF92BF92CF92DF92EF92FF9284
:1014A0006B017C010E94C4084B015C01C114D10492
:1014B000E104F104F1F00E94C408DC01CB018819B9
:1014C0009909AA09BB09883E9340A105B10570F3AB
:1014D00021E0C21AD108E108F10888EE880E83E005
:1014E000981EA11CB11CC114D104E104F10419F728
:1014F000DDCFFF90EF90DF90CF90BF90AF909F90A7
:101500008F900895CF93DF93CDB7DEB767970FB66F
:10151000F894DEBF0FBECDBF789484B5826084BDE1
:1015200084B5816084BD85B5826085BD85B58160E7
:1015300085BD80916E00816080936E001092810065
:101540008091810082608093810080918100816020
:1015500080938100809180008160809380008091E1
:10156000B10084608093B1008091B000816080936D
:10157000B00080917A00846080937A0080917A0034
:10158000826080937A0080917A00816080937A00F3
:1015900080917A00806880937A001092C1008091D7
:1015A000240387FD07C061E00E940C0A8091240398
:1015B0000E94BB0981E080931F038EE193E00E94AB
:1015C0009104E0914503F091460382E08083E0912D
:1015D0004103F09142031082E0914303F0914403F0
:1015E00087E0808310924D03E0914903F0914A0314
:1015F00086E08083E0914703F09148038081806119
:101600008083E0914703F091480380818860808364
:10161000E0914703F0914803808180688083E091E6
:101620004703F091480380818F7D80834BE050E039
:1016300060E272E085E393E00E94F80760E08AE0F0
:101640000E940C0A60E084E00E940C0A61E08DE0D8
:101650000E940C0AEDE9F2E0119283E0E930F8070C
:10166000D9F78BE090E00E94F30F4C0186E192E005
:10167000D40111969C938E9388E090E015969C93EC
:101680008E93149717961C921E92169780E190E005
:101690000E94F30FF4019383828312861186B2E3D2
:1016A0006B2E712C412C512C01E0C3010E944B1276
:1016B000E82EC30101960E944B12F82EC301029638
:1016C0000E944B12182FD401ED91FC91228033809F
:1016D0008CE090E00E94F30FFC017AE0A72E71E00D
:1016E000B72EB182A082E282F3821483C12CD12C66
:1016F000A0E8EA2EAFE3FA2EC582D682E782F08612
:1017000011E0018753864286BC01C401F1010995AD
:10171000FFEF4F1A5F0A83E0680E711C9EE969169D
:10172000710419F69E8A8D8ABE016B5E7F4F85E13A
:1017300093E00E9478078CE090E00E94F30FFC0198
:10174000B182A082128213821482C582D682E7827D
:10175000F086118788248A94982C938682869C8BA5
:101760008B8BBE016D5E7F4F85E193E00E94780711
:101770008CE090E00E94F30FFC01B182A0820FEF99
:10178000028313821482C582D682E782F086118793
:10179000938682869A8B898BBE016F5E7F4F85E12F
:1017A00093E00E9478078CE090E00E94F30FFC0128
:1017B000B182A082128203831482C582D682E7821C
:1017C000F086118793868286988B8F87BE01615F32
:1017D0007F4F85E193E00E9478078CE090E00E94C3
:1017E000F30FFC01B182A082128213820483C582AE
:1017F000D682E782F0861187938682869E878D87C0
:10180000BE01635F7F4F85E193E00E9478078CE023
:1018100090E00E94F30FFC01B182A0820283038357
:101820000483C582D682E782F086118793868286FA
:101830009C878B87BE01655F7F4F85E193E00E94A7
:1018400078078CE090E00E94F30FFC01B182A08247
:101850000283038386E38483C582D682E782F0868F
:10186000118793868286FA87E987BE01675F7F4F7B
:1018700085E193E00E9478078CE090E00E94F30FEE
:10188000FC01B182A082028313820483C582D682C6
:10189000E782F08611879386828698878F83BE01C0
:1018A000695F7F4F85E193E00E9478078CE090E0CC
:1018B0000E94F30FFC01B182A08202830383148291
:1018C000C582D682E782F0861187938682869E83C0
:1018D0008D83BE016B5F7F4F85E193E00E947807A7
:1018E0008CE090E00E94F30FFC01B182A08283E9BA
:1018F000828303831482C582D682E782F0861187B1
:1019000093868286FC83EB83BE016D5F7F4F85E10A
:1019100093E00E9478078CE090E00E94F30FFC01B6
:10192000B182A082028385EA83831482C582D68233
:10193000E782F086118793868286FA83E983BE0167
:101940006F5F7F4F85E193E00E94780780911C03D1
:1019500090911D032091190330911A038217930768
:1019600010F00E943013880F991FE0911503F09139
:101970001603E80FF91F80819181DC01ED91FC9144
:101980000190F081E02D6EE173E0099553E0E52EC2
:10199000F12C84E00E94E309892BA9F180911C03BA
:1019A00090911D03019690931D0380931C03209139
:1019B000190330911A038217930720F010921D0328
:1019C00010921C0380911C0390911D0382179307B2
:1019D00040F6880F991FE0911503F0911603E80F68
:1019E000F91F80819181DC01ED91FC910190F081E2
:1019F000E02D6EE173E0099564EF71E080E090E026
:101A00000E94480AC1C08AE00E94E309892B21F1A3
:101A100083E193E00E944A0280911C0390911D0390
:101A20002091190330911A038217930708F099CF78
:101A3000880F991FE0911503F0911603E80FF91F25
:101A400080819181DC01ED91FC910190F081E02D8C
:101A50006EE173E0099598C085E393E00E94450824
:101A6000892B09F491C00DE912E02FB7F894809109
:101A70000B0390910C03A0910D03B0910E032FBFA7
:101A800080933D0390933E03A0933F03B0934003A4
:101A9000E0913503F09136030680F781E02D85E370
:101AA00093E0099597FD0DC0F80181938F01F3E054
:101AB0000A301F07D1F680910903813009F03EC03A
:101AC00025C02FB7F89480910B0390910C03A0913F
:101AD0000D03B0910E032FBF40913D0350913E0383
:101AE00060913F0370914003841B950BA60BB70BCD
:101AF0004091390350913A0360913B0370913C034C
:101B000084179507A607B70718F2D5CF8DE9C82E19
:101B100082E0D82E02E310E0D6016D916D01C8017C
:101B20006F8B0E944B126F89681719F0C8010E94D1
:101B300053120F5F1F4F0E39110571F78091090382
:101B4000811122C0C12CD12CF601E356FD4F028138
:101B500021814081C601B7010E94021380912003B8
:101B6000909121036817790720F48EE193E00E9499
:101B70004804B3E0CB0ED11CECE6CE16D10421F71D
:101B80008EE193E00E9491040E948D0002CF83E1D8
:101B900093E00E94FF038091260390912703009712
:101BA00011F00E9488108091240387FD03C060E03B
:101BB0000E940C0A8EED93E00E9484038CE094E076
:101BC0000C94D2038F929F92AF92BF92CF92DF92EA
:101BD000EF92FF9285E393E010923803109237035F
:101BE00028EEC22E23E0D22EE12CF12CC092390334
:101BF000D0923A03E0923B03F0923C0320E431E0C0
:101C0000309336032093350325EC30E030934203C4
:101C10002093410324EC30E03093440320934303AA
:101C200020EC30E0309346032093450321EC30E074
:101C3000309348032093470322EC30E030934A036B
:101C40002093490326EC30E030934C0320934B0360
:101C500010924E0310924F031092500310925103B2
:101C600061E270E0709324046093230410922504D1
:101C7000109226041092270436E0832E912CA12C7A
:101C8000B12C8092280490922904A0922A04B09248
:101C90002B0410922C0410922D0410922E041092FA
:101CA0002F0440E240933004109232041092310429
:101CB000109235042EE034E0309334042093330442
:101CC0002EED31E030930D0420930C0428EE31E02A
:101CD00030932104209320041092120410921104D6
:101CE000109214041092130410921604109215040A
:101CF000109218041092170410921A0410921904EA
:101D000010921C0410921B042CEB31E030930F0452
:101D100020930E0490931F0480931E0450E150936F
:101D20001D047093FA036093F9031092FB03109261
:101D3000FC031092FD038092FE039092FF03A09299
:101D40000004B09201041092020410920304109255
:101D500004041092050440930604109208041092A3
:101D6000070410920B041092E0031092E10310920A
:101D7000E2031092E30344EE53E050930A044093CD
:101D8000090446E651E05093DF034093DE0340E749
:101D900051E05093F7034093F6031092E80310923A
:101DA000E7031092EA031092E9031092EC031092F9
:101DB000EB031092EE031092ED031092F0031092D9
:101DC000EF031092F2031092F1033093E503209396
:101DD000E4039093F5038093F40328E02093F30346
:101DE000909334038093330368EA71E080EC91E0D0
:101DF0000E948C0F1092D5031092D403C092D60388
:101E0000D092D703E092D803F092D90388EF91E003
:101E10009093D3038093D20310921F031092250353
:101E200010922C0310922D0310922E0310922F0368
:101E300081E080932B03809328031092290392E082
:101E400090932A0380931E038CE690E090932303E3
:101E5000809322030E94F30F90932703809326031D
:101E6000009761F02CE6FC0111922A95E9F784E2D3
:101E700090E0909321038093200308C010922303E5
:101E800010922203109221031092200385E0809388
:101E9000240380911F03882339F061E085E00E94CC
:101EA0000C0A85E00E94BB09E3EBF0E0E491F0E06E
:101EB000EE0FFF1FEC55FF4F8591949190933103E6
:101EC00080933003E5E9F0E0E491E093320386E1AA
:101ED00092E0909314038093130388E090E0909332
:101EE00018038093170310921A031092190380E1CC
:101EF00090E00E94F30F90931603809315031092C5
:101F00001D0310921C03FF90EF90DF90CF90BF90C5
:101F1000AF909F908F9008950F931F93CF93DF936F
:101F2000009731F46115710519F480E090E03AC032
:101F30008B01EC016EE070E081E090E00E94D70F31
:101F4000FC01892B91F380E883830115110571F061
:101F50001387028781E88383809136049091370448
:101F6000892B21F4F0933704E09336042097C9F0CD
:101F7000D187C08783818260838380913804909168
:101F80003904892B71F4F0933904E093380480917B
:101F90003A0490913B04892B21F4F0933B04E093A5
:101FA0003A04CF01DF91CF911F910F9108950F93C4
:101FB0001F93CF93DF93869F8001879F100D969F7D
:101FC000100D1124C8010E94F30FEC01009729F0B5
:101FD000A80160E070E00E942011CE01DF91CF9156
:101FE0001F910F910895CF93DF938230910510F4E4
:101FF00082E090E0E0913E04F0913F0420E030E088
:10200000C0E0D0E0309711F1408151814817590765
:10201000C0F04817590761F482819381209719F025
:102020009B838A832BC090933F0480933E0426C0F9
:102030002115310519F04217530718F49A01BE0112
:10204000DF01EF010280F381E02DDCCF21153105A6
:1020500009F1281B390B2430310590F412968D912B
:102060009C9113976115710521F0FB019383828385
:1020700004C090933F0480933E04FD01329644C017
:10208000FD01E20FF31F81939193225031092D93AB
:102090003C933AC020913C0430913D04232B41F401
:1020A000209102013091030130933D0420933C04C0
:1020B00020910001309101012115310541F42DB726
:1020C0003EB74091040150910501241B350BE0916E
:1020D0003C04F0913D04E217F307A0F42E1B3F0BE4
:1020E0002817390778F0AC014E5F5F4F241735078A
:1020F00048F04E0F5F1F50933D0440933C04819382
:10210000919302C0E0E0F0E0CF01DF91CF9108951C
:102110000F931F93CF93DF93009709F48CC0FC01BA
:1021200032971382128200913E0410913F040115F0
:10213000110581F420813181820F931F20913C048D
:1021400030913D042817390779F5F0933D04E09369
:102150003C0471C0D80140E050E0AE17BF0750F416
:1021600012962D913C911397AD012115310509F17E
:10217000D901F3CF9D01DA0133832283608171811C
:10218000860F971F8217930769F4EC012881398124
:10219000260F371F2E5F3F4F318320838A819B811B
:1021A00093838283452B29F4F0933F04E0933E040C
:1021B00042C01396FC93EE931297ED014991599109
:1021C0009E01240F351FE217F30771F4808191817E
:1021D000840F951F029611969C938E938281938112
:1021E00013969C938E931297E0E0F0E0D80112963C
:1021F0008D919C911397009719F0F8018C01F6CFFF
:102200008D919C9198012E5F3F4F820F931F2091DB
:102210003C0430913D042817390769F4309729F4BC
:1022200010923F0410923E0402C013821282109357
:102230003D0400933C04DF91CF911F910F910895CD
:10224000DC0101C06D9341505040E0F708950E94B9
:10225000691108F481E00895E89409C097FB3EF401
:1022600090958095709561957F4F8F4F9F4F9923E3
:10227000A9F0F92F96E9BB279395F6958795779561
:102280006795B795F111F8CFFAF4BB0F11F460FF21
:102290001BC06F5F7F4F8F4F9F4F16C0882311F079
:1022A00096E911C0772321F09EE8872F762F05C08D
:1022B000662371F096E8862F70E060E02AF09A9528
:1022C000660F771F881FDAF7880F9695879597F91D
:1022D0000895990F0008550FAA0BE0E8FEEF1616B7
:1022E0001706E807F907C0F012161306E407F5070A
:1022F00098F0621B730B840B950B39F40A2661F07E
:10230000232B242B252B21F408950A2609F4A14020
:10231000A6958FEF811D811D08950E94A0110C9438
:1023200011120E94031238F00E940A1220F0952325
:1023300011F00C94FA110C94001211240C94451213
:102340000E94221270F3959FC1F3950F50E0551F24
:10235000629FF001729FBB27F00DB11D639FAA27FA
:10236000F00DB11DAA1F649F6627B00DA11D661F49
:10237000829F2227B00DA11D621F739FB00DA11D6A
:10238000621F839FA00D611D221F749F3327A00D24
:10239000611D231F849F600D211D822F762F6A2FC0
:1023A00011249F5750409AF0F1F088234AF0EE0F25
:1023B000FF1FBB1F661F771F881F91505040A9F752
:1023C0009E3F510580F00C94FA110C9445125F3F2A
:1023D000E4F3983ED4F3869577956795B795F7958E
:1023E000E7959F5FC1F7FE2B880F911D9695879506
:1023F00097F9089597F99F6780E870E060E0089585
:102400009FEF80EC089500240A941616170618060C
:102410000906089500240A941216130614060506E8
:102420000895092E0394000C11F4882352F0BB0F79
:1024300040F4BF2B11F460FF04C06F5F7F4F8F4FDC
:102440009F4F089557FD9058440F551F59F05F3F17
:1024500071F04795880F97FB991F61F09F3F79F0C6
:1024600087950895121613061406551FF2CF469548
:10247000F1DF08C0161617061806991FF1CF8695CA
:102480007105610508940895E894BB2766277727AE
:10249000CB0197F90895F999FECF92BD81BDF89AC5
:1024A000992780B50895262FF999FECF1FBA92BDBE
:1024B00081BD20BD0FB6F894FA9AF99A0FBE019625
:1024C00008955058BB27AA270E9479120C94111224
:1024D0000E94031238F00E940A1220F039F49F3F44
:1024E00019F426F40C9400120EF4E095E7FB0C941A
:1024F000FA11E92F0E94221258F3BA1762077307E4
:102500008407950720F079F4A6F50C9444120EF494
:10251000E0950B2EBA2FA02D0B01B90190010C01F3
:10252000CA01A0011124FF27591B99F0593F50F40B
:10253000503E68F11A16F040A22F232F342F442763
:10254000585FF3CF469537952795A795F04053955B
:10255000C9F77EF41F16BA0B620B730B840BBAF02B
:102560009150A1F0FF0FBB1F661F771F881FC2F796
:102570000EC0BA0F621F731F841F48F487957795AA
:102580006795B795F7959E3F08F0B0CF9395880F64
:1025900008F09927EE0F9795879508950E942A12C3
:1025A00088F09F5798F0B92F9927B751B0F0E1F014
:1025B000660F771F881F991F1AF0BA95C9F714C0C4
:1025C000B13091F00E944412B1E008950C9444128D
:1025D000672F782F8827B85F39F0B93FCCF38695FD
:1025E00077956795B395D9F73EF49095809570955A
:1025F00061957F4F8F4F9F4F08950E94691108F496
:102600008FEF089597FB072E16F4009407D077FDFF
:1026100009D00E94161307FC05D03EF490958195D1
:102620009F4F0895709561957F4F0895AA1BBB1B1E
:1026300051E107C0AA1FBB1FA617B70710F0A61BC2
:10264000B70B881F991F5A95A9F780959095BC01E3
:10265000CD010895EE0FFF1F0590F491E02D099430
:1026600081E090E0F8940C94351310E0C2E6D0E0DD
:1026700004C0FE010E942A132196C336D107C9F770
:04268000F894FFCFFC
:10268400000040048000000000009305E802F70702
:1026940018049F0218000000000000000000E8FF7A
:1026A400E8FF00000000000014000000000000002B
:1026B4000000ECFFECFF0000000000000000000040
:1026C4005B08F807450823083708A208060000003D
:1026D400000063036503FAFFFAFF00006403670365
:1026E40018000000000084039B03E8FFE8FF0000DB
:1026F4009103A50366011A01240170010000000082
:102704003B046103A701A401A1019E019B011201E5
:102714000E010B01F500150199009700020000005D
:102724000000B103B303FEFFFEFF0000B203B503D4
:10273400000000003D045F03000000003C04AF0300
:10274400A701A401A1019E019B018F014901300150
:10275400170115010C03EB02140000000000D20362
:10276400E903ECFFECFF0000DF03F303DE012E01BD
:102774003801E8010000000039022502EC01E901FA
:10278400E601E501000000005C05E8027707FD03AF
:102794009E02000000007102E507FF030E044A02D6
:0C27A400737461727420736574757000AA
:00000001FF
