:100000000C9463000C948B000C948B000C942304D0
:100010000C9423040C9423040C948B000C948B00FC
:100020000C948B000C948B000C948B000C948B0024
:100030000C948B000C948B000C948B000C948B0014
:100040000C94A2080C948B000C9419090C94F308DE
:100050000C948B000C948B000C948B000C948B00F4
:100060000C94D3050C948B000000000024002700A2
:100070002A000000000023002600290000000008DC
:10008000000201000003040700000000000000005F
:10009000010204081020408001020408102001021F
:1000A0000408102000000000250028002B00040494
:1000B0000404040404040202020202020303030310
:1000C0000303530D380D11241FBECFEFD8E0DEBF60
:1000D000CDBF12E0A0E0B1E0E6E6F5E202C0059097
:1000E0000D92A432B107D9F724E0A4E2B2E001C036
:1000F0001D92A833B207E1F710E0C2E6D0E004C0D9
:100100002197FE010E949B12C136D107C9F70E94B8
:100110003B0A0C94A6120C9400007F928F929F923F
:10012000AF92BF92CF92DF92EF92FF920F931F9305
:10013000CF93DF93EC0149015A018B01C12CD12CE3
:100140007601C814D904EA04FB0484F5F80171901F
:100150008F018F8580FF0BC0E881F9810084F185D4
:10016000E02D20E144E060E070E0CE010995EB85F0
:10017000FC858D859E85E817F90738F470828B859C
:100180009C8501969C878B870BC0E881F981672D40
:1001900070E0028CF38DE02DCE010995019649F0B7
:1001A0002FEFC21AD20AE20AF20ACBCFB401C5017C
:1001B00002C0B601C701DF91CF911F910F91FF904F
:1001C000EF90DF90CF90BF90AF909F908F907F90F7
:1001D0000895CF93DF93EC01E881F9810288F389D8
:1001E000E02D09958F3F2FEF920731F02D813E8151
:1001F0002F5F3F4F3E832D83DF91CF9108958FEF87
:100200009FEF089560E070E0CB01089580E090E0FA
:100210000895CB010895CF93DF93EC0188899989E4
:10022000DC01ED91FC910480F581E02D0995892B8D
:10023000A9F388899989DC01ED91FC910680F78109
:10024000E02DDF91CF910994CF93DF93EC01888962
:100250009989DC01ED91FC910480F581E02D0995EF
:10026000892BA9F388899989DC01ED91FC9100849F
:10027000F185E02DDF91CF910994AF92BF92CF929B
:10028000DF92EF92FF920F931F93CF93DF9300D0F3
:1002900000D0CDB7DEB78C015B01C12CD12C76012B
:1002A000F80180899189DC01ED91FC910680F7814C
:1002B000E02D29833A834B835C83099529813A8118
:1002C0004B815C818F3F71F0C216D306E406F506C0
:1002D0004CF4D5018D935D01BFEFCB1ADB0AEB0A1D
:1002E000FB0ADECFC701B6010F900F900F900F9061
:1002F000DF91CF911F910F91FF90EF90DF90CF9002
:10030000BF90AF900895DC0150968D919C915197CC
:10031000DC01ED91FC910480F581E02D099480E0F1
:1003200090E0089580E090E0089580E090E00895E6
:1003300080E090E008950895CF93DF93C0912B0360
:10034000D0912C03E881F9810480F581E02DCE0164
:100350000995892BB9F3E881F9810680F781E02DB1
:10036000CE01DF91CF9109941F93CF93DF93182F84
:10037000C0912B03D0912C038A3041F4E881F9819C
:100380000190F081E02D6DE0CE010995E881F981C1
:100390000190F081E02D612FCE01099521E030E040
:1003A000019711F420E030E0C901DF91CF911F9156
:1003B000089508958FEF9FEF08958FEF9FEF0895B1
:1003C0008091920290E0919581959109089585ED33
:1003D0008093BC008091BC0084FDFCCF10926C0225
:1003E000089540914602262F30E0240F311D21321E
:1003F0003105DCF420916C022430C9F4FC0180E06A
:1004000090E0861758F4309146022191DC01AC5DF2
:10041000BD4FA30FB11D2C930196F3CF80914602DF
:10042000680F6093460280E0089581E0089582E0BD
:100430000895CF93DF9300D0CDB7DEB7CB01642F03
:1004400049835A830E94F1014981842F5A81952F53
:100450000F900F90DF91CF910895CF93DF931F926C
:10046000CDB7DEB7698361E0CE0101960E94F1014C
:1004700081E090E00F90DF91CF9108950F931F934B
:10048000CF93DF938C01C0E0D0E0F80186819781A3
:10049000C817D907A8F49E01220F331FD80112965E
:1004A000ED91FC911397E20FF31F80819181DC01A4
:1004B000ED91FC910084F185E02D09952196E5CF21
:1004C000DF91CF911F910F910895EF92FF920F93BB
:1004D0001F93CF93DF938C017B01C0E0D0E0F80144
:1004E00086819781C817D907B0F49E01220F331F68
:1004F000D8011296ED91FC911397E20FF31F8081C2
:100500009181DC01ED91FC910190F081E02DB7012A
:1005100009952196E4CFDF91CF911F910F91FF9024
:10052000EF9008950895CF92DF92EF92FF92CF93CC
:10053000DF93EC018D812FE832EC45E75DE3882302
:1005400011F160910001709101018091020190917F
:1005500003010E94D3116B017C0120E030E040E8F0
:100560005FE30E946E1287FD21C080E090E0A0E86A
:10057000BFE38093000190930101A0930201B09327
:1005800003011D8226C060910001709101018091DC
:100590000201909103010E94D2116B017C0120E0C5
:1005A00030E0A9010E94981018164CF4C092000186
:1005B000D0920101E0920201F09203010AC0109270
:1005C000000110920101109202011092030181E0DA
:1005D0008D83DF91CF91FF90EF90DF90CF900895C2
:1005E00008950F931F93CF93DF938C01EB016F3F1F
:1005F0008FEF780719F480E090E00FC06A3031F493
:100600006DE0F801808991890E94EC086C2FF80157
:10061000808991890E94EC08CE01DF91CF911F91D2
:100620000F9108958F929F92BF92CF92DF92EF9297
:10063000FF920F931F93CF93DF9300D000D0CDB7DD
:10064000DEB78C014B01C12CD12C7601C216D3062A
:10065000E406F50644F5F401B1904F01FAE0BF124B
:100660000EC06DE0F8018089918929833A834B831C
:100670005C830E94EC085C814B813A8129816B2D5F
:10068000F8018089918929833A834B835C830E9496
:10069000EC08FFEFCF1ADF0AEF0AFF0A5C814B81FB
:1006A0003A812981D3CFCA01B9010F900F900F90E1
:1006B0000F90DF91CF911F910F91FF90EF90DF90FE
:1006C000CF90BF909F908F9008950C94920F0C94B0
:1006D000920F089508950C94920FDC01ED91FC9116
:1006E000369720813181820F931F0C946B03FB019D
:1006F00020813181FC0131832083FB0142815381C0
:10070000F901369720813181FC01E20FF31F5183FB
:10071000408308952AE631E0FC013183208324E7F9
:1007200031E0318F208F6AE771E00C947703DC01B0
:10073000ED91FC91369720813181820F931F0C94AB
:100740008A03CF93DF93EC010E948A03CE01DF91ED
:10075000CF910C94920FDC01ED91FC9136972081A2
:100760003181820F931F0C94A103089508950C9476
:10077000920FDC01ED91FC91369720813181820F3F
:10078000931F0C94B703FB0120813181FC0131835D
:100790002083FB0142815381F90136972081318109
:1007A000FC01E20FF31F51834083089522EE31E0F4
:1007B000FC01318320832CEE31E0358B248B62EFFA
:1007C00071E00C94C303DC01ED91FC91369720811C
:1007D0003181820F931F0C94D603CF93DF93EC01EA
:1007E0000E94D603CE01DF91CF910C94920FDC01D1
:1007F000ED91FC91369720813181820F931F0C94EB
:10080000ED030C94920F0C94920FFC018AE192E09C
:100810009183808386819781892B11F017821682BC
:10082000828193810C94920FCF93DF93EC010E940D
:100830000504CE01DF91CF910C94920F0C94920F8E
:100840000895089508951F920F920FB60F921124E4
:100850000F900FBE0F901F9018950F931F93DC0100
:1008600017968C911797882361F0489FA001112457
:10087000452F289F90011124232F089F80011124C8
:10088000012F1D968C911D971A969C911A97189678
:10089000ED91FC911997891308C0CB01880F991F1E
:1008A000680F791F6E0F7F1F0AC0660F771F660FD4
:1008B000771F6E0F7F1FFB01E80FF11D10821A9644
:1008C0008C911A97FB01E80FF11D40831B968C91C8
:1008D0001B97FB01E80FF11D20831C968C91FB01F7
:1008E000E80FF11D00831F910F910895CF92DF92C1
:1008F000EF92FF920F931F93CF93DF93CDB7DEB7A5
:1009000029970FB6F894DEBF0FBECDBF8C01DC0176
:1009100018968D919C911997892B09F4A3C00E9478
:100920007D08F801C684D784E088F188DC01CB011A
:100930008C199D09AE09BF098C329140A105B10502
:1009400070F3F894D80114968D919C9115979A8321
:1009500089831896ED91FC9119977F01BFEFEB1AEF
:10096000FB0A80818987F80190810288F389E02D54
:10097000D80154968C91992309F430C09081982B1A
:1009800098879081809589238F838F818C8388E0DD
:100990008B8358856F8149853B812C8189819A8120
:1009A000D701508347FD252F3A952083262F39F014
:1009B000441F00C000006083000000C0F2CF38E098
:1009C0004D9160830000019761F7D8015396FC9325
:1009D000EE93529749873B832C833AC09081982BA2
:1009E00098879081809589238F838F818E8388E07B
:1009F0008D8358856F8149853D812E8189819A81BA
:100A0000D701508347FD252F00C000C0208300C0C0
:100A100000C000C000C000C060830000262F3A95CF
:100A200041F0441F000000C000C000C000C000C072
:100A3000E8CF38E04D9100C0608300C0019709F70E
:100A4000D8015396FC93EE93529749873D832E83AA
:100A50009A83898378940E947D08F8016687778756
:100A6000808B918B29960FB6F894DEBF0FBECDBF59
:100A7000DF91CF911F910F91FF90EF90DF90CF907A
:100A80000895FB0140E0842F90E02281338182179A
:100A9000930738F55585628520853185561306C044
:100AA00083E0489F200D311D11240AC0880F991F33
:100AB000880F991F280F391FD901A50FB11D1C924E
:100AC0008285D901A80FB11D1C928385D901A80F79
:100AD000B11D1C928485D901A80FB11D1C924F5FD6
:100AE000D2CFCF010C9476048F929F92AF92BF9297
:100AF000DF92EF92FF920F931F93CF93DF93FC014E
:100B00007B0164818090000190900101A09002011E
:100B1000B0900301D3801281C681D0E0F7018281B9
:100B20009381C817D90758F570E080E090E00E94E3
:100B30009F10A50194010E94FE100E943F12062FF3
:100B40006D2D70E080E090E00E949F10A50194015F
:100B50000E94FE100E943F12D62E612F70E080E0AE
:100B600090E00E949F10A50194010E94FE100E9437
:100B70003F12462F2D2DBE01C7010E942D04C70133
:100B80000E9476046AE070E080E090E0DF91CF910F
:100B90001F910F91FF90EF90DF90BF90AF909F90CB
:100BA0008F900C94010A1F920F920FB60F9211248E
:100BB0002F933F934F935F936F937F938F939F9365
:100BC000AF93BF93EF93FF938091B900887F8036F6
:100BD00009F49CC068F5883209F45BC090F4803158
:100BE00009F454C038F4882309F4F6C0883009F4B5
:100BF0004DC0F6C0883109F44CC0803209F45DC0A4
:100C0000EFC0803409F468C048F4803309F455C05B
:100C1000883309F0E5C080936B02D8C0803509F4B1
:100C20004FC0883509F45DC0883409F0D9C0D6C0FA
:100C3000883909F4C7C0A8F4883709F467C038F4C4
:100C4000883609F463C0803709F460C0C9C08838A9
:100C500009F4B8C0803909F45FC0803809F0C0C019
:100C60005BC0803B09F486C038F4803A09F466C062
:100C7000883A09F47FC0B4C0803C09F4A7C0883C1E
:100C800009F4A4C0883B09F48AC0AAC080919102EB
:100C900010C09091900280918F02981770F5E091AA
:100CA000900281E08E0F80939002F0E0E159FD4FB9
:100CB00080818093BB0085EC86C080936B028EC0E0
:100CC000E091900281E08E0F809390028091BB00B2
:100CD000F0E0E159FD4F80839091900280918F0266
:100CE0006EC0E091900281E08E0F8093900280911F
:100CF000BB00F0E0E159FD4F808380916E028111CD
:100D00006DC081E080936D0284EA61C083E08093CE
:100D10006C0210926A02CFCF80916A02803208F092
:100D200051C0E0916A0281E08E0F80936A02809147
:100D3000BB00F0E0E65BFD4F8083BDCF85EC809388
:100D4000BC0010926C0280916A02803230F4E09113
:100D50006A02F0E0E65BFD4F108260916A0270E08B
:100D6000E0914802F09149028AE492E009951092DC
:100D70006A0236C084E080936C021092470210929F
:100D80004602E0914402F0914502099580914602A5
:100D9000811105C081E08093460210922402E09107
:100DA000470281E08E0F80934702F0E0EC5DFD4F3B
:100DB00080818093BB0090914702809146029817F2
:100DC00008F479CF85E88093BC000AC085EC809355
:100DD000BC0010926C0204C010926B020E94E701EA
:100DE000FF91EF91BF91AF919F918F917F916F9103
:100DF0005F914F913F912F910F900FBE0F901F90D9
:100E000018950895AF92BF92CF92DF92EF92FF9222
:100E10000F931F93CF93DF93EC01CC80DD8086018D
:100E20000F5F1F4FC016D10608F049C07B018A81B1
:100E30009B818017910760F59601275F3F4F8217CE
:100E4000930730F5A880B9803B832A83C901880FB6
:100E5000991F0E94FD0E99838883D50140E050E0E0
:100E60004C155D0591F0E881F9819A01220F331F3D
:100E7000E20FF31F309729F08D919C911197918388
:100E800080834F5F5F4F1296EBCFC5010E94920F98
:100E90008C819D819C01220F331F8017910790F454
:100EA000E881F981E20FF31F309729F0D7014D91C6
:100EB0005C915183408301962E5F3F4FEECF0C151E
:100EC0001D0510F41D830C83DF91CF911F910F91AD
:100ED000FF90EF90DF90CF90BF90AF900895CF93A9
:100EE000DF9300D0CDB7DEB77A836983BE016F5F31
:100EF0007F4F02960E9402070F900F90DF91CF91D3
:100F000008950895CF92DF92EF92FF920F931F936F
:100F1000CF93DF936C017A018B01C0E0D0E0CE1556
:100F2000DF0589F0D8016D918D01D601ED91FC911D
:100F30000190F081E02DC6010995892B11F47E0105
:100F400002C02196ECCFC701DF91CF911F910F9185
:100F5000FF90EF90DF90CF900895FC01918D828DEE
:100F6000981761F0828DDF01A80FB11D5D968C91FD
:100F7000928D9F5F9F73928F90E008958FEF9FEF08
:100F80000895FC01918D828D981731F0828DE80FC4
:100F9000F11D858D90E008958FEF9FEF0895FC017E
:100FA000918D228D892F90E0805C9F4F821B91094B
:100FB0008F73992708958DE293E00E94CF0721E077
:100FC000892B09F420E0822F0895FC01848DDF0134
:100FD000A80FB11DA35ABF4F2C91848D90E00196AC
:100FE0008F739927848FA689B7892C93A089B1899B
:100FF0008C9180648C93938D848D981306C00288A5
:10100000F389E02D80818F7D80830895EF92FF9298
:101010000F931F93CF93DF93EC0181E0888F9B8D1B
:101020008C8D981305C0E889F989808185FD24C0DD
:10103000F62E0B8D10E00F5F1F4F0F731127E02E60
:101040008C8DE8120CC00FB607FCFACFE889F9893D
:10105000808185FFF5CFCE010E94E507F1CF8B8D12
:10106000FE01E80FF11DE35AFF4FF0820B8FEA8972
:10107000FB898081806207C0EE89FF896083E889EF
:10108000F98980818064808381E090E0DF91CF9155
:101090001F910F91FF90EF900895CF93DF93EC0194
:1010A000888D8823C9F0EA89FB89808185FD05C088
:1010B000A889B9898C9186FD0FC00FB607FCF5CFC2
:1010C000808185FFF2CFA889B9898C9185FFEDCF0A
:1010D000CE010E94E507E7CFDF91CF91089580E030
:1010E00090E0892B29F00E94DB0781110C9400000D
:1010F0000895CB0108950E94A1123FB7F894809102
:10110000070390910803A0910903B0910A0326B543
:10111000A89B05C02F3F19F00196A11DB11D3FBF2F
:10112000BA2FA92F982F8827820F911DA11DB11DBD
:10113000BC01CD0142E0660F771F881F991F4A95B9
:10114000D1F708951F920F920FB60F9211242F938B
:101150003F938F939F93AF93BF938091030390919D
:101160000403A0910503B09106033091020323E02C
:10117000230F2D3720F40196A11DB11D05C026E8CF
:10118000230F0296A11DB11D209302038093030338
:1011900090930403A0930503B09306038091070383
:1011A00090910803A0910903B0910A030196A11D33
:1011B000B11D8093070390930803A0930903B09394
:1011C0000A03BF91AF919F918F913F912F910F9003
:1011D0000FBE0F901F901895DC01ED91FC910190CE
:1011E000F081E02D09941F920F920FB60F921124F7
:1011F0002F933F934F935F936F937F938F939F931F
:10120000AF93BF93EF93FF938DE293E00E94E507C6
:10121000FF91EF91BF91AF919F918F917F916F91CE
:101220005F914F913F912F910F900FBE0F901F90A4
:1012300018951F920F920FB60F9211242F938F9330
:101240009F93EF93FF93E0913D03F0913E038081E4
:10125000E0914303F091440382FD12C0908180919C
:1012600046038F5F8F7320914703821751F0E091FF
:101270004603F0E0E35DFC4F958F8093460301C089
:101280008081FF91EF919F918F912F910F900FBED1
:101290000F901F901895833081F028F4813099F0D9
:1012A0008230A1F008958730A9F08830B9F08430F9
:1012B000D1F4809180008F7D03C0809180008F7772
:1012C00080938000089584B58F7702C084B58F7DA8
:1012D00084BD08958091B0008F7703C08091B000E5
:1012E0008F7D8093B0000895CF93DF93282F30E057
:1012F000F901E458FF4F8491F901E057FF4FD49171
:10130000F901E255FF4FC491CC2399F081110E945D
:101310004B09EC2FF0E0EE0FFF1FEC55FF4FA591AE
:10132000B4918FB7F8949C91ED2FE095E923EC935D
:101330008FBFDF91CF910895CF93DF93282F30E0B7
:10134000F901E458FF4F8491F901E057FF4FD49120
:10135000F901E255FF4FC491CC2391F081110E9415
:101360004B09EC2FF0E0EE0FFF1FEE58FF4FA59159
:10137000B491EC91ED2381E090E021F480E002C093
:1013800080E090E0DF91CF910895CF93DF9390E0DC
:10139000FC01E057FF4F2491FC01E255FF4F84917F
:1013A000882361F190E0880F991FFC01E859FF4FF5
:1013B000C591D491FC01EC55FF4FA591B4916111F9
:1013C00009C09FB7F8948881209582238883EC9187
:1013D0002E230BC0623061F49FB7F8943881822FBE
:1013E000809583238883EC912E2B2C939FBF06C07E
:1013F0008FB7F894E8812E2B28838FBFDF91CF9190
:1014000008958F929F92AF92BF92CF92DF92EF9208
:10141000FF926B017C010E947D084B015C01C114AD
:10142000D104E104F104F1F00E947D08DC01CB015C
:1014300088199909AA09BB09883E9340A105B105FD
:1014400070F321E0C21AD108E108F10888EE880E95
:1014500083E0981EA11CB11CC114D104E104F10465
:1014600019F7DDCFFF90EF90DF90CF90BF90AF9056
:101470009F908F900895CF93DF93CDB7DEB7679796
:101480000FB6F894DEBF0FBECDBF789484B58260EE
:1014900084BD84B5816084BD85B5826085BD85B518
:1014A000816085BD80916E00816080936E00109296
:1014B0008100809181008260809381008091810011
:1014C00081608093810080918000816080938000A2
:1014D0008091B10084608093B1008091B000816000
:1014E0008093B00080917A00846080937A0080912C
:1014F0007A00826080937A0080917A008160809384
:101500007A0080917A00806880937A001092C100FE
:1015100080911C0387FD07C061E00E94C50980918E
:101520001C030E94740981E08093170386E193E015
:101530000E947604E0913D03F0913E0382E08083B7
:10154000E0913903F0913A031082E0913B03F0916E
:101550003C0387E0808310924503E0914103F091C2
:10156000420386E08083E0913F03F0914003808155
:1015700080618083E0913F03F09140038081886027
:101580008083E0913F03F0914003808180688083F5
:10159000E0913F03F091400380818F7D808360E084
:1015A0008AE00E94C50960E084E00E94C50961E00C
:1015B0008DE00E94C509E5E9F2E0119283E0E13097
:1015C000F807D9F78BE090E00E94FD0E6C018AE1EC
:1015D00092E0D60111969C938E9388E090E0159648
:1015E0009C938E93149717961C921E92169780E1E7
:1015F00090E00E94FD0EF60193838283128611868D
:1016000072E3A72EB12C10E0EEE06E2EE1E07E2E0C
:1016100055245394C5010E94BC11382EC501019672
:101620000E94BC11482EC50102960E94BC11082FD1
:10163000D601ED91FC918280938087E090E00E943A
:10164000FD0EFC016EE0E62E61E0F62E71826082F6
:1016500032824382048301E055821683BC01C601B5
:10166000F40109951F5FF3E0AF0EB11C143291F63F
:10167000DE8ACD8ABE016B5E7F4F8DE093E00E94D3
:10168000020787E090E00E94FD0EFC01F182E082FB
:1016900012821382148205831FEF16839C8B8B8B1F
:1016A000BE016D5E7F4F8DE093E00E94020787E0F0
:1016B00090E00E94FD0EFC01F182E0821283138211
:1016C0001482058316839A8B898BBE016F5E7F4FD0
:1016D0008DE093E00E94020787E090E00E94FD0EFB
:1016E000FC01F182E0821282138314820583168347
:1016F000988B8F87BE01615F7F4F8DE093E00E94E2
:10170000020787E090E00E94FD0EFC01F182E0827A
:10171000128213821483058316839E878D87BE01F0
:10172000635F7F4F8DE093E00E94020787E090E0C7
:101730000E94FD0EFC01F182E08212831383148368
:10174000058316839C878B87BE01655F7F4F8DE085
:1017500093E00E94020787E090E00E94FD0EFC01EA
:10176000F182E0821283138386E3848305831683E8
:10177000FA87E987BE01675F7F4F8DE093E00E94A3
:10178000020787E090E00E94FD0EFC01F182E082FA
:101790001283138214830583168398878F83BE0177
:1017A000695F7F4F8DE093E00E94020787E090E041
:1017B0000E94FD0EFC01F182E082128313831482E9
:1017C000058316839E838D83BE016B5F7F4F8DE003
:1017D00093E00E94020787E090E00E94FD0EFC016A
:1017E000F182E08283E98283138314820583168366
:1017F000FC83EB83BE016D5F7F4F8DE093E00E9421
:10180000020787E090E00E94FD0EFC01F182E08279
:10181000128385EA8383148205831683FA83E9831E
:10182000BE016F5F7F4F8DE093E00E9402078091C1
:101830001403909115032091110330911203821724
:10184000930710F00E94A112880F991FE0910D03D9
:10185000F0910E03E80FF91F80819181DC01ED9179
:10186000FC910190F081E02D66E173E0099553E071
:10187000E52EF12C84E00E949C09892BA9F180912E
:10188000140390911503019690931503809314030C
:1018900020911103309112038217930720F01092C8
:1018A000150310921403809114039091150382176D
:1018B000930740F6880F991FE0910D03F0910E03F6
:1018C000E80FF91F80819181DC01ED91FC9101907D
:1018D000F081E02D66E173E0099564EF71E080E04E
:1018E00090E00E94010AC1C08AE00E949C09892BF5
:1018F00021F18BE093E00E943E02809114039091CD
:10190000150320911103309112038217930708F0F9
:1019100099CF880F991FE0910D03F0910E03E80F06
:10192000F91F80819181DC01ED91FC910190F081A2
:10193000E02D66E173E0099598C08DE293E00E9486
:10194000CF07892B09F491C005E912E02FB7F8946D
:101950008091030390910403A0910503B0910603C5
:101960002FBF8093350390933603A0933703B09332
:101970003803E0912D03F0912E030680F781E02DCE
:101980008DE293E0099597FD0DC0F80181938F01D9
:10199000F3E002301F07D1F680910103813009F096
:1019A0003EC025C02FB7F8948091030390910403A3
:1019B000A0910503B09106032FBF409135035091CC
:1019C00036036091370370913803841B950BA60B87
:1019D000B70B409131035091320360913303709102
:1019E000340384179507A607B70718F2D5CF85E902
:1019F000C82E82E0D82E02E310E0D6016D916D0171
:101A0000C8016F8B0E94BC116F89681719F0C8015B
:101A10000E94C4110F5F1F4F0E39110571F780919D
:101A20000103811122C0C12CD12CF601EB56FD4FD0
:101A3000028121814081C601B7010E947312809109
:101A40001803909119036817790720F486E193E051
:101A50000E942D04B3E0CB0ED11CECE6CE16D104CF
:101A600021F786E193E00E9476040E946F0802CF7E
:101A70008BE093E00E94050480911E0390911F0368
:101A8000009711F00E94920F80911C0387FD03C004
:101A900060E00E94C50986ED93E00E948A0384E01D
:101AA00094E00C94D6038F929F92AF92BF92CF9204
:101AB000DF92EF92FF928DE293E01092300310924A
:101AC0002F0328EEC22E23E0D22EE12CF12CC0925F
:101AD0003103D0923203E0923303F092340324E4D2
:101AE00031E030932E0320932D0325EC30E030932A
:101AF0003A032093390324EC30E030933C032093E5
:101B00003B0320EC30E030933E0320933D0321EC77
:101B100030E03093400320933F0322EC30E03093D9
:101B200042032093410326EC30E03093440320939A
:101B300043031092460310924703109248031092F9
:101B4000490361E270E070931C0460931B041092DF
:101B50001D0410921E0410921F0436E0832E912C57
:101B6000A12CB12C8092200490922104A0922204F6
:101B7000B09223041092240410922504109226049B
:101B80001092270440E24093280410922A041092F5
:101B9000290410922D0426E034E030932C04209385
:101BA0002B0422EE31E030930504209304042CEE44
:101BB00031E0309319042093180410920A04109213
:101BC000090410920C0410920B0410920E0410924F
:101BD0000D041092100410920F041092120410922F
:101BE0001104109214041092130420EC31E030938D
:101BF000070420930604909317048093160450E181
:101C0000509315047093F2036093F1031092F30361
:101C10001092F4031092F5038092F6039092F7036A
:101C2000A092F803B092F9031092FA031092FB030A
:101C30001092FC031092FD034093FE0310920004E7
:101C40001092FF03109203041092D8031092D9034C
:101C50001092DA031092DB034CED53E05093020430
:101C6000409301044AE651E05093D7034093D603D2
:101C700044E751E05093EF034093EE031092E003EA
:101C80001092DF031092E2031092E1031092E4033A
:101C90001092E3031092E6031092E5031092E8031A
:101CA0001092E7031092EA031092E9033093DD03E8
:101CB0002093DC039093ED038093EC0328E02093C2
:101CC000EB0390932C0380932B036CE971E084EB7E
:101CD00091E00E942A101092CD031092CC03C09282
:101CE000CE03D092CF03E092D003F092D1038CEFD9
:101CF00091E09093CB038093CA0310921703109244
:101D00001D031092240310922503109226031092B3
:101D1000270381E080932303809320031092210303
:101D200092E090932203809316038CE690E09093C8
:101D30001B0380931A030E94FD0E90931F03809350
:101D40001E03009761F02CE6FC0111922A95E9F739
:101D500084E290E0909319038093180308C01092D6
:101D60001B0310921A03109219031092180385E0B6
:101D700080931C0380911703882339F061E085E08C
:101D80000E94C50985E00E947409E3EBF0E0E4914C
:101D9000F0E0EE0FFF1FEC55FF4F8591949190936B
:101DA000290380932803E5E9F0E0E491E0932A0316
:101DB0008AE192E090930C0380930B0388E090E01B
:101DC0009093100380930F0310921203109211034B
:101DD00080E190E00E94FD0E90930E0380930D032E
:101DE0001092150310921403FF90EF90DF90CF90A4
:101DF000BF90AF909F908F900895CF93DF938230E4
:101E0000910510F482E090E0E0913004F09131040B
:101E100020E030E0C0E0D0E0309711F14081518106
:101E200048175907C0F04817590761F48281938118
:101E3000209719F09B838A832BC090933104809361
:101E4000300426C02115310519F04217530718F444
:101E50009A01BE01DF01EF010280F381E02DDCCFAA
:101E60002115310509F1281B390B2430310590F477
:101E700012968D919C9113976115710521F0FB01CC
:101E80009383828304C09093310480933004FD01D6
:101E9000329644C0FD01E20FF31F819391932250CB
:101EA00031092D933C933AC020912E0430912F0498
:101EB000232B41F4209106013091070130932F0428
:101EC00020932E0420910401309105012115310544
:101ED00041F42DB73EB74091080150910901241BF0
:101EE000350BE0912E04F0912F04E217F307A0F4D4
:101EF0002E1B3F0B2817390778F0AC014E5F5F4F60
:101F00002417350748F04E0F5F1F50932F0440935E
:101F10002E048193919302C0E0E0F0E0CF01DF91C5
:101F2000CF9108950F931F93CF93DF93009709F4F8
:101F30008CC0FC0132971382128200913004109100
:101F400031040115110581F420813181820F931F25
:101F500020912E0430912F042817390779F5F0933A
:101F60002F04E0932E0471C0D80140E050E0AE177A
:101F7000BF0750F412962D913C911397AD01211596
:101F8000310509F1D901F3CF9D01DA0133832283B1
:101F900060817181860F971F8217930769F4EC01A6
:101FA00028813981260F371F2E5F3F4F31832083D1
:101FB0008A819B8193838283452B29F4F09331049A
:101FC000E093300442C01396FC93EE931297ED0118
:101FD000499159919E01240F351FE217F30771F4BF
:101FE00080819181840F951F029611969C938E9308
:101FF0008281938113969C938E931297E0E0F0E098
:10200000D80112968D919C911397009719F0F801C1
:102010008C01F6CF8D919C9198012E5F3F4F820FDE
:10202000931F20912E0430912F042817390769F44B
:10203000309729F4109231041092300402C01382B8
:10204000128210932F0400932E04DF91CF911F91E1
:102050000F9108950F931F93CF93DF93009731F45F
:102060006115710519F480E090E03AC08B01EC0134
:102070006EE070E081E090E00E947510FC01892B19
:1020800091F380E883830115110571F013870287AE
:1020900081E883838091320490913304892B21F469
:1020A000F0933304E09332042097C9F0D187C087BE
:1020B0008381826083838091340490913504892BDD
:1020C00071F4F0933504E0933404809136049091D8
:1020D0003704892B21F4F0933704E0933604CF01C1
:1020E000DF91CF911F910F9108950F931F93CF937D
:1020F000DF93869F8001879F100D969F100D1124FE
:10210000C8010E94FD0EEC01009729F0A80160E0D3
:1021100070E00E949110CE01DF91CF911F910F913D
:102120000895DC0101C06D9341505040E0F70895DF
:102130000E94DA1008F481E00895E89409C097FB42
:102140003EF490958095709561957F4F8F4F9F4F8E
:102150009923A9F0F92F96E9BB279395F6958795D2
:1021600077956795B795F111F8CFFAF4BB0F11F495
:1021700060FF1BC06F5F7F4F8F4F9F4F16C088233C
:1021800011F096E911C0772321F09EE8872F762F72
:1021900005C0662371F096E8862F70E060E02AF0B3
:1021A0009A95660F771F881FDAF7880F969587959F
:1021B00097F90895990F0008550FAA0BE0E8FEEF74
:1021C00016161706E807F907C0F012161306E407FB
:1021D000F50798F0621B730B840B950B39F40A26F4
:1021E00061F0232B242B252B21F408950A2609F4D2
:1021F000A140A6958FEF811D811D08950E941111A8
:102200000C9482110E94741138F00E947B1120F00E
:10221000952311F00C946B110C94711111240C94F2
:10222000B6110E94931170F3959FC1F3950F50E082
:10223000551F629FF001729FBB27F00DB11D639F78
:10224000AA27F00DB11DAA1F649F6627B00DA11D1E
:10225000661F829F2227B00DA11D621F739FB00DC4
:10226000A11D621F839FA00D611D221F749F332734
:10227000A00D611D231F849F600D211D822F762FCD
:102280006A2F11249F5750409AF0F1F088234AF0AA
:10229000EE0FFF1FBB1F661F771F881F9150504016
:1022A000A9F79E3F510580F00C946B110C94B61168
:1022B0005F3FE4F3983ED4F3869577956795B7959D
:1022C000F795E7959F5FC1F7FE2B880F911D9695B7
:1022D000879597F9089597F99F6780E870E060E027
:1022E00008959FEF80EC089500240A9416161706AF
:1022F00018060906089500240A94121613061406F7
:1023000005060895092E0394000C11F4882352F059
:10231000BB0F40F4BF2B11F460FF04C06F5F7F4F11
:102320008F4F9F4F089557FD9058440F551F59F0F8
:102330005F3F71F04795880F97FB991F61F09F3FB2
:1023400079F087950895121613061406551FF2CFDB
:102350004695F1DF08C0161617061806991FF1CF2B
:1023600086957105610508940895E894BB27662752
:102370007727CB0197F90895F999FECF92BD81BDDA
:10238000F89A992780B50895262FF999FECF1FBA9C
:1023900092BD81BD20BD0FB6F894FA9AF99A0FBE8E
:1023A000019608955058BB27AA270E94EA110C9461
:1023B00082110E94741138F00E947B1120F039F4D0
:1023C0009F3F19F426F40C9471110EF4E095E7FB8D
:1023D0000C946B11E92F0E94931158F3BA176207FE
:1023E00073078407950720F079F4A6F50C94B511CE
:1023F0000EF4E0950B2EBA2FA02D0B01B901900120
:102400000C01CA01A0011124FF27591B99F0593F63
:1024100050F4503E68F11A16F040A22F232F342FAB
:102420004427585FF3CF469537952795A795F040F9
:102430005395C9F77EF41F16BA0B620B730B840B0E
:10244000BAF09150A1F0FF0FBB1F661F771F881FC6
:10245000C2F70EC0BA0F621F731F841F48F487951E
:1024600077956795B795F7959E3F08F0B0CF939510
:10247000880F08F09927EE0F9795879508950E9489
:102480009B1188F09F5798F0B92F9927B751B0F05A
:10249000E1F0660F771F881F991F1AF0BA95C9F7E8
:1024A00014C0B13091F00E94B511B1E008950C94C0
:1024B000B511672F782F8827B85F39F0B93FCCF373
:1024C000869577956795B395D9F73EF49095809565
:1024D000709561957F4F8F4F9F4F08950E94DA103E
:1024E00008F48FEF089597FB072E16F4009407D099
:1024F00077FD09D00E94871207FC05D03EF4909525
:1025000081959F4F0895709561957F4F0895AA1BFF
:10251000BB1B51E107C0AA1FBB1FA617B70710F0CE
:10252000A61BB70B881F991F5A95A9F78095909500
:10253000BC01CD010895EE0FFF1F0590F491E02D31
:10254000099481E090E0F8940C94A61210E0C2E6A1
:10255000D0E004C0FE010E949B122196C336D10731
:06256000C9F7F894FFCF5B
:102566000000803F00003804800000000000740571
:10257600F00281071E04930218000000000000000C
:102586000000E8FFE8FF0000000000001400000063
:10259600000000000000ECFFECFF0000000000005F
:1025A6000000000006088207CF07AD07C1074D08E7
:1025B60006000000000069036B03FAFFFAFF000043
:1025C6006A036D031800000000008A03A103E8FFF8
:1025D600E8FF00009703AB036A011E01280174019E
:1025E60000000000200467039B01980195019201F9
:1025F6008F0106010201FF00E90009018D0079083B
:10260600020000000000B503B703FEFFFEFF000056
:10261600B603B90300000000220401040000000014
:10262600210465039B019801950192018F018301A5
:102636003D0124010B0109011203F10214000000FF
:102646000000D603ED03ECFFECFF0000E303F70305
:10265600E20132013C01EC01000000002D021902EA
:10266600E001DD01DA01D901000000004105F002B8
:102676000107030492020000000065026F070504CB
:0426860014043E02F8
:00000001FF
