:100000000C9463000C948B000C948B000C944605AC
:100010000C9446050C9446050C948B000C948B00B4
:100020000C948B000C948B000C948B000C948B0024
:100030000C948B000C948B000C948B000C948B0014
:100040000C94A4040C948B000C9414050C94EE04F2
:100050000C948B000C948B000C948B000C948B00F4
:100060000C9450050C948B00000000002400270025
:100070002A000000000023002600290000000008DC
:10008000000201000003040700000000000000005F
:10009000010204081020408001020408102001021F
:1000A0000408102000000000250028002B00040494
:1000B0000404040404040202020202020303030310
:1000C00003037E06220911241FBECFEFD8E0DEBF56
:1000D000CDBF22E0AAE2B1E001C01D92A33FB2076A
:1000E000E1F711E0A0E0B1E0E4EFF8E102C0059033
:1000F0000D92AA32B107D9F710E0C2E6D0E004C0F1
:100100002197FE010E94350BC136D107C9F70E9425
:100110006E070C946D0C0C940000DC019091E102D0
:10012000992361F0699FB0011124672F499FA001B5
:100130001124452F299F90011124232F3091E7028C
:100140008091E402E091E202F091E302381308C0EA
:10015000CD01880F991F8A0F9B1F8E0F9F1F0BC009
:10016000CD01880F991F880F991F8E0F9F1FFC01CB
:10017000E30FF11D10823091E402FC01E30FF11D49
:1001800060833091E502FC01E30FF11D4083309163
:10019000E602FC01E30FF11D20830895833081F016
:1001A00028F4813099F08230A1F008958730A9F0C9
:1001B0008830B9F08430D1F4809180008F7D03C005
:1001C000809180008F7780938000089584B58F7729
:1001D00002C084B58F7D84BD08958091B0008F7773
:1001E00003C08091B0008F7D8093B0000895CF93BD
:1001F000DF93282F30E0F901E458FF4F8491F90193
:10020000E057FF4FD491F901E255FF4FC491CC2341
:1002100099F081110E94CE00EC2FF0E0EE0FFF1F4D
:10022000EC55FF4FA591B4918FB7F8949C91ED2FA9
:10023000E095E923EC938FBFDF91CF910895CF93A1
:10024000DF93282F30E0F901E458FF4F8491F90142
:10025000E057FF4FD491F901E255FF4FC491CC23F1
:1002600091F081110E94CE00EC2FF0E0EE0FFF1F05
:10027000EE58FF4FA591B491EC91ED2381E090E011
:1002800021F480E002C080E090E0DF91CF910895FA
:10029000CF93DF9390E0FC01E057FF4F2491FC01E6
:1002A000E255FF4F8491882361F190E0880F991FF8
:1002B000FC01E859FF4FC591D491FC01EC55FF4F6B
:1002C000A591B491611109C09FB7F89488812095D8
:1002D00082238883EC912E230BC0623061F49FB798
:1002E000F8943881822F809583238883EC912E2B7C
:1002F0002C939FBF06C08FB7F894E8812E2B2883DC
:100300008FBFDF91CF9108953FB7F89480910F028E
:1003100090911002A0911102B091120226B5A89BF3
:1003200005C02F3F19F00196A11DB11D3FBFBA2F87
:10033000A92F982F8827820F911DA11DB11DBC01E7
:10034000CD0142E0660F771F881F991F4A95D1F7AC
:1003500008950F931F93CF93DF93CDB7DEB72997FF
:100360000FB6F894DEBF0FBECDBF8091E202909130
:10037000E302892B09F4A1C00E9484010091E802E4
:100380001091E9022091EA023091EB02DC01CB01ED
:10039000801B910BA20BB30BC297A105B10560F3B3
:1003A000F8948091DE029091DF029A838983E09134
:1003B000E202F091E302DF0111968081898790913A
:1003C000DA02E091EC02F091ED028091EE029923C5
:1003D00009F42EC09081982B98879081809589236D
:1003E0008F838F818C8388E08B8358856F814985CB
:1003F0003B812C8189819A81508347FD252F3A9535
:100400002083262F39F0441F00C0000060830000C5
:1004100000C0F2CF38E04D9160830000019761F792
:10042000F093ED02E093EC0249873B832C8338C0C4
:100430009081982B98879081809589238F838F81D5
:100440008E8388E08D8358856F8149853D812E811B
:1004500089819A81508347FD252F00C000C02083E9
:1004600000C000C000C000C000C060830000262F94
:100470003A9541F0441F000000C000C000C000C019
:1004800000C0E8CF38E04D9100C0608300C0019704
:1004900009F7F093ED02E093EC0249873D832E8348
:1004A0009A83898378940E9484016093E802709310
:1004B000E9028093EA029093EB0229960FB6F89432
:1004C000DEBF0FBECDBFDF91CF911F910F91089579
:1004D0008F929F92AF92BF92CF92DF92EF92FF9254
:1004E0006B017C010E9484014B015C01C114D104A9
:1004F000E104F104F1F00E948401DC01CB018819D0
:100500009909AA09BB09883E9340A105B10570F37A
:1005100021E0C21AD108E108F10888EE880E83E0D4
:10052000981EA11CB11CC114D104E104F10419F7F7
:10053000DDCFFF90EF90DF90CF90BF90AF909F9076
:100540008F900895CF92DF92EF92FF920F931F93B7
:10055000CF93DF936C017A018B01C0E0D0E0CE1520
:10056000DF0589F0D8016D918D01D601ED91FC91E7
:100570000190F081E02DC6010995892B11F47E01CF
:1005800002C02196ECCFC701DF91CF911F910F914F
:10059000FF90EF90DF90CF900895FC01918D828DB8
:1005A000981761F0828DDF01A80FB11D5D968C91C7
:1005B000928D9F5F9F73928F90E008958FEF9FEFD2
:1005C0000895FC01918D828D981731F0828DE80F8E
:1005D000F11D858D90E008958FEF9FEF0895FC0148
:1005E000918D228D892F90E0805C9F4F821B910915
:1005F0008F739927089583E192E00E94EF0221E032
:10060000892B09F420E0822F0895FC01848DDF01FD
:10061000A80FB11DA35ABF4F2C91848D90E0019675
:100620008F739927848FA689B7892C93A089B18964
:100630008C9180648C93938D848D981306C002886E
:10064000F389E02D80818F7D80830895EF92FF9262
:100650000F931F93CF93DF93EC0181E0888F9B8DE5
:100660008C8D981305C0E889F989808185FD24C0A7
:10067000F62E0B8D10E00F5F1F4F0F731127E02E2A
:100680008C8DE8120CC00FB607FCFACFE889F98907
:10069000808185FFF5CFCE010E940503F1CF8B8DC0
:1006A000FE01E80FF11DE35AFF4FF0820B8FEA893C
:1006B000FB898081806207C0EE89FF896083E889B9
:1006C000F98980818064808381E090E0DF91CF911F
:1006D0001F910F91FF90EF900895CF93DF93EC015E
:1006E000888D8823C9F0EA89FB89808185FD05C052
:1006F000A889B9898C9186FD0FC00FB607FCF5CF8C
:10070000808185FFF2CFA889B9898C9185FFEDCFD3
:10071000CE010E940503E7CFDF91CF91089580E0DD
:1007200090E0892B29F00E94FB0281110C940000BB
:10073000089508958FEF9FEF08958FEF9FEF08952D
:100740008091980190E0919581959109089585EDAA
:100750008093BC008091BC0084FDFCCF109272019C
:10076000089540914C01262F30E0240F311D213295
:100770003105DCF4209172012430C9F4FC0180E0E1
:1007800090E0861758F430914C012191DC01A65D70
:10079000BE4FA30FB11D2C930196F3CF80914C0156
:1007A000680F60934C0180E0089581E0089582E035
:1007B0000895CF93DF9300D0CDB7DEB7CB01642F80
:1007C00049835A830E94B1034981842F5A81952F0E
:1007D0000F900F90DF91CF910895CF93DF931F92E9
:1007E000CDB7DEB7698361E0CE0101960E94B10307
:1007F00081E090E00F90DF91CF9108950F931F93C8
:10080000CF93DF93C0E0D0E003E010E0FE01E456B8
:10081000FE4F228141813081CE01B8010E940D0B33
:10082000CB016091DC027091DD028617970718F406
:10083000632F0E948D002396CC36D10539F7DF91C6
:10084000CF911F910F910C94A9012F923F924F923B
:100850005F926F927F928F929F92AF92BF92CF9250
:10086000DF92EF92FF920F931F93CF93DF9300D00D
:1008700000D0CDB7DEB7212C312C282F30E040E05E
:1008800050E029833A834B835C83C72ED12CE12C23
:10089000F12C862E912CA12CB12C4090000150906F
:1008A000010160900201709003018091DC0290913F
:1008B000DD022816390638F569817A818B819C81A1
:1008C0000E943909A30192010E9498090E94D90A45
:1008D000162FC701B6010E943909A30192010E9497
:1008E00098090E94D90A062FC501B4010E9439094E
:1008F000A30192010E9498090E94D90A212F402F3A
:10090000C1010E948D003FEF231A330A44E22416EE
:10091000310419F60F900F900F900F90DF91CF9147
:100920001F910F91FF90EF90DF90CF90BF90AF900D
:100930009F908F907F906F905F904F903F902F90FF
:100940000C94A9010E94680C1F920F920FB60F928F
:1009500011242F933F938F939F93AF93BF938091D5
:100960000B0290910C02A0910D02B0910E023091F9
:100970000A0223E0230F2D3720F40196A11DB11D9B
:1009800005C026E8230F0296A11DB11D20930A027F
:1009900080930B0290930C02A0930D02B0930E0271
:1009A00080910F0290911002A0911102B091120259
:1009B0000196A11DB11D80930F0290931002A09388
:1009C0001102B0931202BF91AF919F918F913F910D
:1009D0002F910F900FBE0F901F9018951F920F929E
:1009E0000FB60F9211242F933F934F935F936F9302
:1009F0007F938F939F93AF93BF93EF93FF9383E185
:100A000092E00E940503FF91EF91BF91AF919F91FA
:100A10008F917F916F915F914F913F912F910F90A7
:100A20000FBE0F901F9018951F920F920FB60F9246
:100A300011242F938F939F93EF93FF93E0912302C1
:100A4000F09124028081E0912902F0912A0282FD36
:100A500012C0908180912C028F5F8F7320912D02A4
:100A6000821751F0E0912C02F0E0ED5EFD4F958F82
:100A700080932C0201C08081FF91EF919F918F9113
:100A80002F910F900FBE0F901F9018951F920F92ED
:100A90000FB60F9211240F900FBE0F901F90189554
:100AA0001F920F920FB60F9211242F933F934F93E3
:100AB0005F936F937F938F939F93AF93BF93EF93C6
:100AC000FF938091B900887F803609F49CC068F557
:100AD000883209F45BC090F4803109F454C038F4D2
:100AE000882309F4F6C0883009F44DC0F6C0883177
:100AF00009F44CC0803209F45DC0EFC0803409F4C1
:100B000068C048F4803309F455C0883309F0E5C063
:100B100080937101D8C0803509F44FC0883509F43D
:100B20005DC0883409F0D9C0D6C0883909F4C7C07F
:100B3000A8F4883709F467C038F4883609F463C02C
:100B4000803709F460C0C9C0883809F4B8C080395A
:100B500009F45FC0803809F0C0C05BC0803B09F475
:100B600086C038F4803A09F466C0883A09F47FC038
:100B7000B4C0803C09F4A7C0883C09F4A4C0883BF9
:100B800009F48AC0AAC08091970110C09091960183
:100B900080919501981770F5E091960181E08E0F94
:100BA00080939601F0E0EB58FE4F80818093BB006C
:100BB00085EC86C0809371018EC0E091960181E042
:100BC0008E0F809396018091BB00F0E0EB58FE4FB2
:100BD000808390919601809195016EC0E09196017D
:100BE00081E08E0F809396018091BB00F0E0EB587E
:100BF000FE4F80838091740181116DC081E08093EC
:100C0000730184EA61C083E08093720110927001E5
:100C1000CFCF80917001803208F051C0E091700117
:100C200081E08E0F809370018091BB00F0E0E05B6B
:100C3000FE4F8083BDCF85EC8093BC001092720183
:100C400080917001803230F4E0917001F0E0E05B5F
:100C5000FE4F10826091700170E0E0914E01F091C2
:100C60004F0180E591E009951092700136C084E053
:100C70008093720110924D0110924C01E0914A0153
:100C8000F0914B01099580914C01811105C081E0E3
:100C900080934C0110922A01E0914D0181E08E0F6A
:100CA00080934D01F0E0E65DFE4F80818093BB00B4
:100CB00090914D0180914C01981708F479CF85E807
:100CC0008093BC000AC085EC8093BC001092720136
:100CD00004C0109271010E94A703FF91EF91BF9190
:100CE000AF919F918F917F916F915F914F913F91C4
:100CF0002F910F900FBE0F901F9018951092160213
:100D00001092150288EE93E0A0E0B0E08093170205
:100D100090931802A0931902B0931A022EE031E0CA
:100D2000309314022093130225EC30E0309320021C
:100D300020931F0224EC30E0309322022093210202
:100D400020EC30E0309324022093230221EC30E0A9
:100D5000309326022093250222EC30E030932802C3
:100D60002093270226EC30E030932A0220932902B8
:100D700010922C0210922D0210922E0210922F022D
:100D80001092B3021092B2028093B4029093B50213
:100D9000A093B602B093B7028EE191E09093B102B6
:100DA0008093B0021092DB021092E1021092E802EE
:100DB0001092E9021092EA021092EB0281E0809315
:100DC000E7028093E4021092E50292E09093E6023B
:100DD0008093DA028CE690E09093DF028093DE024B
:100DE0000E943B0B9093E3028093E202009761F034
:100DF0002CE6FC0111922A95E9F784E290E09093A9
:100E0000DD028093DC0208C01092DF021092DE0245
:100E10001092DD021092DC0285E08093E002809166
:100E2000DB02882339F061E085E00E94480185E01B
:100E30000E94F700E3EBF0E0E491F0E0EE0FFF1F1B
:100E4000EC55FF4F859194919093ED028093EC02C5
:100E5000E5E9F0E0E491E093EE021092BC0210921A
:100E6000BD021092BE028FEF8093BF021092C002AB
:100E70001092C1021092C2028093C3021092C40267
:100E80001092C5021092C6028093C7028093C802D6
:100E90008093C9028093CA028093CB028093CC02D4
:100EA00096E39093CD028093CE021092CF0280936E
:100EB000D0028093D1028093D2021092D30293E9A0
:100EC0009093D4028093D5021092D6028093D702D9
:100ED00085EA8093D8021092D9020895CF93DF93C8
:100EE0001F92CDB7DEB7789484B5826084BD84B597
:100EF000816084BD85B5826085BD85B5816085BD15
:100F000080916E00816080936E00109281008091CC
:100F10008100826080938100809181008160809354
:100F20008100809180008160809380008091B10079
:100F300084608093B1008091B00081608093B000A4
:100F400080917A00846080937A0080917A00826038
:100F500080937A0080917A00816080937A008091FA
:100F60007A00806880937A001092C1008091E0023C
:100F700087FD07C061E00E9448018091E0020E9465
:100F8000F70081E08093DB020CE911E0E12CF12C09
:100F90008FEFE81AF80AC7010E94560AF8018193F8
:100FA0008F01FCE6EF16F10499F70E94FE03E09131
:100FB0002302F091240282E08083E0911F02F091ED
:100FC00020021082E0912102F091220287E08083CA
:100FD00010922B02E0912702F091280286E0808394
:100FE000E0912502F0912602808180618083E0916A
:100FF0002502F0912602808188608083E09125029D
:10100000F0912602808180688083E0912502F09132
:10101000260280818F7D808360E08AE00E94480103
:1010200060E084E00E94480161E08DE00E94480198
:10103000ECE9F1E0119282E0E830F807D9F711E02D
:1010400084E00E941F010197F9F400910902802FAA
:1010500090E0FC01EE0FFF1F8E0F9F1FFC01E45478
:10106000FD4F6081718182810E9425040F5F0A30EB
:1010700018F40093090202C01092090264EF71E0B3
:1010800080E090E00E9468028AE00E941F01892BA4
:1010900009F458C080919B012AE037ED43E25CE3FC
:1010A0008823E9F0609100017091010180910201B3
:1010B000909103010E946D0A6093000170930101F9
:1010C000809302019093030120E030E040E85FE369
:1010D0000E94080B87FD1EC010929B011BC06091EF
:1010E00000017091010180910201909103010E9421
:1010F0006C0A609300017093010180930201909348
:10110000030120E030E0A9010E943209181614F012
:1011100010939B018091090290E0FC01EE0FFF1FEC
:101120008E0F9F1FFC01E454FD4F6081718182810D
:101130000E9425040E94A9016AE070E080E090E02E
:101140000E94680283E192E00E94EF02892B09F479
:1011500076C09CE9E92E91E0F92E2FB7F8948091A2
:101160000B0290910C02A0910D02B0910E022FBFC4
:1011700080931B0290931C02A0931D02B0931E0249
:10118000E0911302F09114020680F781E02D83E1D3
:1011900092E0099597FD0EC0F70181937F01F9E078
:1011A000EF16F2E0FF06C9F680910802813009F0DF
:1011B00040C025C02FB7F89480910B0290910C028B
:1011C000A0910D02B0910E022FBF40911B025091D1
:1011D0001C0260911D0270911E02841B950BA60BD0
:1011E000B70B40911702509118026091190270914B
:1011F0001A0284179507A607B70710F2D5CF8CE916
:10120000E82E81E0F82EC12CD12CF70161917F01ED
:10121000FFEFCF1ADF0AC60169830E94560A69816F
:10122000681719F0C6010E945E0A8CE6C816D10440
:1012300061F780910802811102C00E94FE030E94A2
:101240008F03FECE8091E2029091E302009711F0AD
:101250000E94D00B8091E00287FD03C060E00C94F7
:10126000480108950E94740908F481E00895E89403
:1012700009C097FB3EF490958095709561957F4FDE
:101280008F4F9F4F9923A9F0F92F96E9BB2793958C
:10129000F695879577956795B795F111F8CFFAF49C
:1012A000BB0F11F460FF1BC06F5F7F4F8F4F9F4FCD
:1012B00016C0882311F096E911C0772321F09EE82B
:1012C000872F762F05C0662371F096E8862F70E091
:1012D00060E02AF09A95660F771F881FDAF7880F6B
:1012E0009695879597F90895990F0008550FAA0BC1
:1012F000E0E8FEEF16161706E807F907C0F0121629
:101300001306E407F50798F0621B730B840B950B2B
:1013100039F40A2661F0232B242B252B21F4089580
:101320000A2609F4A140A6958FEF811D811D08951D
:101330000E94AB090C941C0A0E940E0A38F00E940D
:10134000150A20F0952311F00C94050A0C940B0A51
:1013500011240C94500A0E942D0A70F3959FC1F33A
:10136000950F50E0551F629FF001729FBB27F00D53
:10137000B11D639FAA27F00DB11DAA1F649F6627A8
:10138000B00DA11D661F829F2227B00DA11D621FF7
:10139000739FB00DA11D621F839FA00D611D221FB1
:1013A000749F3327A00D611D231F849F600D211D95
:1013B000822F762F6A2F11249F5750409AF0F1F018
:1013C00088234AF0EE0FFF1FBB1F661F771F881F81
:1013D00091505040A9F79E3F510580F00C94050AAA
:1013E0000C94500A5F3FE4F3983ED4F386957795CA
:1013F0006795B795F795E7959F5FC1F7FE2B880F27
:10140000911D9695879597F9089597F99F6780E8BC
:1014100070E060E008959FEF80EC089500240A9446
:101420001616170618060906089500240A941216BF
:101430001306140605060895092E0394000C11F4F2
:10144000882352F0BB0F40F4BF2B11F460FF04C09F
:101450006F5F7F4F8F4F9F4F089557FD9058440FF8
:10146000551F59F05F3F71F04795880F97FB991F03
:1014700061F09F3F79F087950895121613061406C0
:10148000551FF2CF4695F1DF08C01616170618064D
:10149000991FF1CF86957105610508940895E89428
:1014A000BB2766277727CB0197F90895F999FECFD7
:1014B00092BD81BDF89A992780B50895262FF99994
:1014C000FECF1FBA92BD81BD20BD0FB6F894FA9A27
:1014D000F99A0FBE019608955058BB27AA270E947B
:1014E000840A0C941C0A0E940E0A38F00E94150A05
:1014F00020F039F49F3F19F426F40C940B0A0EF4F3
:10150000E095E7FB0C94050AE92F0E942D0A58F399
:10151000BA17620773078407950720F079F4A6F5D8
:101520000C944F0A0EF4E0950B2EBA2FA02D0B0150
:10153000B90190010C01CA01A0011124FF27591B18
:1015400099F0593F50F4503E68F11A16F040A22F1E
:10155000232F342F4427585FF3CF4695379527958F
:10156000A795F0405395C9F77EF41F16BA0B620B8E
:10157000730B840BBAF09150A1F0FF0FBB1F661FD5
:10158000771F881FC2F70EC0BA0F621F731F841F18
:1015900048F4879577956795B795F7959E3F08F03E
:1015A000B0CF9395880F08F09927EE0F9795879500
:1015B00008950E94350A88F09F5798F0B92F99270F
:1015C000B751B0F0E1F0660F771F881F991F1AF02E
:1015D000BA95C9F714C0B13091F00E944F0AB1E03A
:1015E00008950C944F0A672F782F8827B85F39F039
:1015F000B93FCCF3869577956795B395D9F73EF4C7
:1016000090958095709561957F4F8F4F9F4F08956E
:101610000E94740908F48FEF089597FB072E16F4C3
:10162000009407D077FD09D00E94210B07FC05D05C
:101630003EF4909581959F4F0895709561957F4FE9
:101640000895AA1BBB1B51E107C0AA1FBB1FA61709
:10165000B70710F0A61BB70B881F991F5A95A9F75B
:1016600080959095BC01CD010895EE0FFF1F059068
:10167000F491E02D0994CF93DF938230910510F41B
:1016800082E090E0E091F102F091F20220E030E09F
:10169000C0E0D0E0309711F14081518148175907DF
:1016A000C0F04817590761F482819381209719F09F
:1016B0009B838A832BC09093F2028093F10226C011
:1016C0002115310519F04217530718F49A01BE018C
:1016D000DF01EF010280F381E02DDCCF2115310520
:1016E00009F1281B390B2430310590F412968D91A5
:1016F0009C9113976115710521F0FB0193838283FF
:1017000004C09093F2028093F102FD01329644C02E
:10171000FD01E20FF31F81939193225031092D9324
:101720003C933AC02091EF023091F002232B41F418
:1017300020910601309107013093F0022093EF02CF
:1017400020910401309105012115310541F42DB797
:101750003EB74091080150910901241B350BE091DF
:10176000EF02F091F002E217F307A0F42E1B3F0BFB
:101770002817390778F0AC014E5F5F4F2417350703
:1017800048F04E0F5F1F5093F0024093EF02819399
:10179000919302C0E0E0F0E0CF01DF91CF91089596
:1017A0000F931F93CF93DF93009709F48CC0FC0134
:1017B0003297138212820091F1021091F202011508
:1017C000110581F420813181820F931F2091EF0256
:1017D0003091F0022817390779F5F093F002E09381
:1017E000EF0271C0D80140E050E0AE17BF0750F4DF
:1017F00012962D913C911397AD012115310509F1F8
:10180000D901F3CF9D01DA01338322836081718195
:10181000860F971F8217930769F4EC01288139819D
:10182000260F371F2E5F3F4F318320838A819B8194
:1018300093838283452B29F4F093F202E093F10223
:1018400042C01396FC93EE931297ED014991599182
:101850009E01240F351FE217F30771F480819181F7
:10186000840F951F029611969C938E93828193818B
:1018700013969C938E931297E0E0F0E0D8011296B5
:101880008D919C911397009719F0F8018C01F6CF78
:101890008D919C9198012E5F3F4F820F931F209155
:1018A000EF023091F0022817390769F4309729F4D4
:1018B0001092F2021092F10202C01382128210936F
:1018C000F0020093EF02DF91CF911F910F910895E5
:1018D00081E090E0F8940C946D0C10E0C2E6D0E04A
:1018E00004C0FE010E94350B2196C336D107C9F70B
:0418F000F894FFCF9A
:1018F4000000803F0000F302800000000000260387
:10190400A202EF02CD02E1026D0300000000ED032C
:0A191400D903A0039D039A03990371
:00000001FF
