:100000000C94E0000C9408010C9408010C94B204C8
:100010000C94B2040C94B2040C9408010C940801E2
:100020000C9408010C9408010C9408010C9408012C
:100030000C9408010C9408010C9408010C9408011C
:100040000C94DD090C9408010C94540A0C942E0AAB
:100050000C9408010C9408010C9408010C940801FC
:100060000C940E070C94080100407A10F35A00A07B
:10007000724E18090010A5D4E80000E87648170071
:1000800000E40B54020000CA9A3B000000E1F505B1
:10009000000080969800000040420F000000A086FB
:1000A00001000000102700000000E803000000002D
:1000B0006400000000000A000000000001000000D1
:1000C00000002C76D888DC674F0823DFC1DFAE59EB
:1000D000E1B1B796E5E3E453C63AE651997696E87E
:1000E000E6C28426EB898C9B62ED407C6FFCEFBC02
:1000F0009C9F40F2BAA56FA5F490055A2AF75C932D
:100100006B6CF9676DC11BFCE0E40D47FEF520E662
:10011000B500D0ED902E0300943577050080841E45
:10012000080000204E0A000000C80C333333330FA0
:10013000986E12831141EF8D2114893BE65516CF3D
:10014000FEE6DB18D1844B381BF77C1D901DA4BB49
:10015000E424203284725E228100C9F124ECA1E5FE
:100160003D2700000000240027002A0000000000B6
:1001700023002600290000000008000201000003FF
:100180000407000000000000000001020408102025
:100190004080010204081020010204081020000021
:1001A0000000250028002B000404040404040404B7
:1001B000020202020202030303030303580F3D0F6E
:1001C00011241FBECFEFD8E0DEBFCDBF12E0A0E00C
:1001D000B1E0E0E7F4E302C005900D92A83AB10760
:1001E000D9F724E0A8EAB2E001C01D92AC3BB20707
:1001F000E1F710E0CFEDD0E004C02197FE010E94AE
:100200007F17CE3DD107C9F70E94FB0B0C942B1A28
:100210000C9400007F928F929F92AF92BF92CF92E8
:10022000DF92EF92FF920F931F93CF93DF93EC0136
:1002300049015A018B01C12CD12C7601C814D90473
:10024000EA04FB0484F5F80171908F018F8580FF2B
:100250000BC0E881F9810084F185E02D20E144E0C4
:1002600060E070E0CE010995EB85FC858D859E856B
:10027000E817F90738F470828B859C8501969C8776
:100280008B870BC0E881F981672D70E0028CF38DBC
:10029000E02DCE010995019649F02FEFC21AD20A3E
:1002A000E20AF20ACBCFB401C50102C0B601C70110
:1002B000DF91CF911F910F91FF90EF90DF90CF9042
:1002C000BF90AF909F908F907F900895CF93DF93D2
:1002D000EC01E881F9810288F389E02D09958F3FCF
:1002E0002FEF920731F02D813E812F5F3F4F3E83EC
:1002F0002D83DF91CF9108958FEF9FEF089560E0F8
:1003000070E0CB01089580E090E00895CB0108955E
:10031000CF93DF93EC0188899989DC01ED91FC9101
:100320000480F581E02D0995892BA9F388899989A5
:10033000DC01ED91FC910680F781E02DDF91CF91FA
:100340000994CF93DF93EC0188899989DC01ED91C1
:10035000FC910480F581E02D0995892BA9F388890A
:100360009989DC01ED91FC910084F185E02DDF910C
:10037000CF910994AF92BF92CF92DF92EF92FF920A
:100380000F931F93CF93DF9300D000D0CDB7DEB78C
:100390008C015B01C12CD12C7601F80180899189F7
:1003A000DC01ED91FC910680F781E02D29833A83F1
:1003B0004B835C83099529813A814B815C818F3F16
:1003C00071F0C216D306E406F5064CF4D5018D9300
:1003D0005D01BFEFCB1ADB0AEB0AFB0ADECFC701D8
:1003E000B6010F900F900F900F90DF91CF911F915A
:1003F0000F91FF90EF90DF90CF90BF90AF90089556
:10040000DC0150968D919C915197DC01ED91FC910E
:100410000480F581E02D099480E090E0089580E06B
:1004200090E0089580E090E0089580E090E00895E5
:100430000895CF93DF93C091AF03D091B003E881CB
:10044000F9810480F581E02DCE010995892BB9F35E
:10045000E881F9810680F781E02DCE01DF91CF910F
:1004600009941F93CF93DF93182FC091AF03D091BE
:10047000B0038A3041F4E881F9810190F081E02DE8
:100480006DE0CE010995E881F9810190F081E02DC0
:10049000612FCE01099521E030E0019711F420E0B1
:1004A00030E0C901DF91CF911F91089508958FEF3A
:1004B0009FEF08958FEF9FEF08958091160390E0CE
:1004C000919581959109089585ED8093BC00809167
:1004D000BC0084FDFCCF1092F00208954091CA0246
:1004E000262F30E0240F311D21323105DCF420911C
:1004F000F0022430C9F4FC0180E090E0861758F443
:100500003091CA022191DC01A855BD4FA30FB11D46
:100510002C930196F3CF8091CA02680F6093CA02B0
:1005200080E0089581E0089582E00895CF93DF93FD
:1005300000D0CDB7DEB7CB01642F49835A830E9428
:100540006E024981842F5A81952F0F900F90DF9171
:10055000CF910895CF93DF931F92CDB7DEB7698314
:1005600061E0CE0101960E946E0281E090E00F9062
:10057000DF91CF9108950F931F93CF93DF938C0159
:10058000C0E0D0E0F80186819781C817D907A8F4A8
:100590009E01220F331FD8011296ED91FC91139703
:1005A000E20FF31F80819181DC01ED91FC910084C9
:1005B000F185E02D09952196E5CFDF91CF911F912F
:1005C0000F9108950895CF92DF92EF92FF92CF930B
:1005D000DF93EC018D812FE832EC45E75DE3882362
:1005E00011F16091000170910101809102019091DF
:1005F00003010E9495166B017C0120E030E040E889
:100600005FE30E94301787FD21C080E090E0A0E802
:10061000BFE38093000190930101A0930201B09386
:1006200003011D8226C0609100017091010180913B
:100630000201909103010E9494166B017C0120E05D
:1006400030E0A9010E94231518164CF4C092000155
:10065000D0920101E0920201F09203010AC01092CF
:10066000000110920101109202011092030181E039
:100670008D83DF91CF91FF90EF90DF90CF90089521
:1006800008950F931F93CF93DF938C01EB016F3F7E
:100690008FEF780719F480E090E00FC06A3031F4F2
:1006A0006DE0F801808991890E94270A6C2FF8017A
:1006B000808991890E94270ACE01DF91CF911F91F5
:1006C0000F9108958F929F92BF92CF92DF92EF92F7
:1006D000FF920F931F93CF93DF9300D000D0CDB73D
:1006E000DEB78C014B01C12CD12C7601C216D3068A
:1006F000E406F50644F5F401B1904F01FAE0BF12AB
:100700000EC06DE0F8018089918929833A834B837B
:100710005C830E94270A5C814B813A8129816B2D81
:10072000F8018089918929833A834B835C830E94F5
:10073000270AFFEFCF1ADF0AEF0AFF0A5C814B811D
:100740003A812981D3CFCA01B9010F900F900F9040
:100750000F90DF91CF911F910F91FF90EF90DF905D
:10076000CF90BF909F908F900895FB0120813181A1
:10077000FC0131832083FB0142815381F9013697CB
:1007800020813181FC01E20FF31F518340830895E2
:1007900022EE31E0FC01318320832CEE31E0358BF9
:1007A000248B62EF71E00C94B503DC01ED91FC91B8
:1007B000369720813181820F931F0C94C803CF9309
:1007C000DF93EC010E94C803CE01DF91CF910C941E
:1007D000AC13DC01ED91FC91369720813181820FC1
:1007E000931F0C94DF030C94AC13089508950C949C
:1007F000AC13DC01ED91FC91369720813181820FA1
:10080000931F0C94F703FB0120813181FC0131839C
:100810002083FB0142815381F90136972081318188
:10082000FC01E20FF31F5183408308952AE631E073
:10083000FC013183208324E731E0318F208F6AE788
:1008400071E00C940304DC01ED91FC91369720815A
:100850003181820F931F0C941604CF93DF93EC0128
:100860000E941604CE01DF91CF910C94AC13DC01F1
:10087000ED91FC91369720813181820F931F0C946A
:100880002D040C94AC13089508950C94AC13DC0162
:10089000ED91FC91369720813181820F931F0C944A
:1008A00045040C94AC130C94AC13FC018AE192E067
:1008B0009183808386819781892B11F0178216821C
:1008C000828193810C94AC13CF93DF93EC010E944F
:1008D0005504CE01DF91CF910C94AC130C94AC1362
:1008E000EF92FF920F931F93CF93DF938C017B01C5
:1008F00084E292E00E94C10AD80116966D917C9123
:10090000179780E090E04AE00E94C30A8EE692E0EA
:100910000E94C10AC0E0D0E0F80186819781C81723
:10092000D907B0F4CE01880F991FD8011296ED9126
:10093000FC911397E80FF91F80819181DC01ED9103
:10094000FC910190F081E02DB70109952196E4CF4B
:10095000DF91CF911F910F91FF90EF90089508952F
:10096000089508951F920F920FB60F9211240F90C1
:100970000FBE0F901F9018950F931F93DC011796D1
:100980008C911797882361F0489FA0011124452F6F
:10099000289F90011124232F089F80011124012FEB
:1009A0001D968C911D971A969C911A971896ED9109
:1009B000FC911997891308C0CB01880F991F680F04
:1009C000791F6E0F7F1F0AC0660F771F660F771F94
:1009D0006E0F7F1FFB01E80FF11D10821A968C919C
:1009E0001A97FB01E80FF11D40831B968C911B9712
:1009F000FB01E80FF11D20831C968C91FB01E80F91
:100A0000F11D00831F910F910895CF92DF92EF9215
:100A1000FF920F931F93CF93DF93CDB7DEB7299744
:100A20000FB6F894DEBF0FBECDBF8C01DC01189667
:100A30008D919C911997892B09F4A3C00E94B80944
:100A4000F801C684D784E088F188DC01CB018C19D9
:100A50009D09AE09BF098C329140A105B10570F323
:100A6000F894D80114968D919C9115979A83898357
:100A70001896ED91FC9119977F01BFEFEB1AFB0AD5
:100A800080818987F80190810288F389E02DD8015F
:100A900054968C91992309F430C09081982B9887B3
:100AA0009081809589238F838F818C8388E08B83CD
:100AB00058856F8149853B812C8189819A81D70135
:100AC000508347FD252F3A952083262F39F0441F68
:100AD00000C000006083000000C0F2CF38E04D91FC
:100AE00060830000019761F7D8015396FC93EE9361
:100AF000529749873B832C833AC09081982B9887E3
:100B00009081809589238F838F818E8388E08D8368
:100B100058856F8149853D812E8189819A81D701D0
:100B2000508347FD252F00C000C0208300C000C0B7
:100B300000C000C000C060830000262F3A9541F03D
:100B4000441F000000C000C000C000C000C0E8CFCB
:100B500038E04D9100C0608300C0019709F7D801CB
:100B60005396FC93EE93529749873D832E839A8345
:100B7000898378940E94B809F80166877787808B0B
:100B8000918B29960FB6F894DEBF0FBECDBFDF91D3
:100B9000CF911F910F91FF90EF90DF90CF9008952C
:100BA000CF93DF93EB0188E392E00E94C10A60E0FB
:100BB00070E0E0E0F0E040E050E08A819B8148177F
:100BC000590720F59D858A8528853985981303C0A6
:100BD0002E0F3F1F06C0260F371FD901A90FB11DC9
:100BE0001C928A85D901A80FB11D1C928B85D90151
:100BF000A80FB11D1C928C85D901A80FB11D1C92A4
:100C00004F5F5F4F33966C5F7F4FD7CFCE01DF9141
:100C1000CF910C9405054F925F926F927F928F92C5
:100C20009F92AF92BF92CF92DF92EF92FF920F937B
:100C30001F93CF93DF93CDB7DEB7E8970FB6F89445
:100C4000DEBF0FBECDBF7C016B015E0123E3A20EB0
:100C5000B11C60910001709101018091020190919D
:100C60000301850122E044E00E940211F70187811F
:100C70008F9386818F93BF92AF9284811F928F93BF
:100C800083811F928F9382811F928F938AE492E0D7
:100C90009F938F93025311091F930F930E948A17FA
:100CA000C8010E94C10A0FB6F894DEBF0FBECDBFC7
:100CB000F70186819781019609F04DC0A12CB12CD6
:100CC000F60182819381A816B90608F090C0409081
:100CD0000001509001016090020170900301F70142
:100CE000648170E080E090E00E942A15A3019201E7
:100CF0000E9489150E940117062FF701638170E099
:100D000080E090E00E942A15A30192010E948915BB
:100D10000E940117162FF701628170E080E090E0D9
:100D20000E942A15A30192010E9489150E940117B1
:100D3000462F212FB501C6010E94BC04C6010E94A6
:100D400005056AE070E080E090E00E94C10BFFEFD3
:100D5000AF1ABF0AB5CF80E792E00E94C10AF7013F
:100D600064818090000190900101A0900201B090F8
:100D7000030173801281E680F780F60182819381FE
:100D8000E816F90658F570E080E090E00E942A1518
:100D9000A50194010E9489150E940117062F672D55
:100DA00070E080E090E00E942A15A50194010E9465
:100DB00089150E940117762E612F70E080E090E087
:100DC0000E942A15A50194010E9489150E9401170D
:100DD000462F272DB701C6010E94BC04C6010E9400
:100DE00005056AE070E080E090E00E94C10BE896A3
:100DF0000FB6F894DEBF0FBECDBFDF91CF911F912C
:100E00000F91FF90EF90DF90CF90BF90AF909F90A9
:100E10008F907F906F905F904F9008951F920F92E8
:100E20000FB60F9211242F933F934F935F936F93BD
:100E30007F938F939F93AF93BF93EF93FF93809193
:100E4000B900887F803609F49CC068F5883209F4BF
:100E50005BC090F4803109F454C038F4882309F45D
:100E6000F6C0883009F44DC0F6C0883109F44CC092
:100E7000803209F45DC0EFC0803409F468C048F4E2
:100E8000803309F455C0883309F0E5C08093EF0240
:100E9000D8C0803509F44FC0883509F45DC0883466
:100EA00009F0D9C0D6C0883909F4C7C0A8F488377A
:100EB00009F467C038F4883609F463C0803709F450
:100EC00060C0C9C0883809F4B8C0803909F45FC06F
:100ED000803809F0C0C05BC0803B09F486C038F49C
:100EE000803A09F466C0883A09F47FC0B4C0803CF7
:100EF00009F4A7C0883C09F4A4C0883B09F48AC05F
:100F0000AAC08091150310C090911403809113031F
:100F1000981770F5E091140381E08E0F809314030D
:100F2000F0E0ED50FD4F80818093BB0085EC86C0E2
:100F30008093EF028EC0E091140381E08E0F8093C6
:100F400014038091BB00F0E0ED50FD4F8083909141
:100F50001403809113036EC0E091140381E08E0F9F
:100F6000809314038091BB00F0E0ED50FD4F80832F
:100F70008091F20281116DC081E08093F10284EAD8
:100F800061C083E08093F0021092EE02CFCF809197
:100F9000EE02803208F051C0E091EE0281E08E0F47
:100FA0008093EE028091BB00F0E0E253FD4F80831E
:100FB000BDCF85EC8093BC001092F0028091EE02D0
:100FC000803230F4E091EE02F0E0E253FD4F108207
:100FD0006091EE0270E0E091CC02F091CD028EECD7
:100FE00092E009951092EE0236C084E08093F00200
:100FF0001092CB021092CA02E091C802F091C9028D
:1010000009958091CA02811105C081E08093CA02CE
:101010001092A802E091CB0281E08E0F8093CB0268
:10102000F0E0E855FD4F80818093BB009091CB02AA
:101030008091CA02981708F479CF85E88093BC00A4
:101040000AC085EC8093BC001092F00204C010929C
:10105000EF020E946402FF91EF91BF91AF919F91C7
:101060008F917F916F915F914F913F912F910F9051
:101070000FBE0F901F9018950895AF92BF92CF9218
:10108000DF92EF92FF920F931F93CF93DF93EC01C8
:10109000CC80DD8086010F5F1F4FC016D10608F09F
:1010A00049C07B018A819B818017910760F5960179
:1010B000275F3F4F8217930730F5A880B9803B83A5
:1010C0002A83C901880F991F0E9417139983888367
:1010D000D50140E050E04C155D0591F0E881F981C3
:1010E0009A01220F331FE20FF31F309729F08D91E1
:1010F0009C911197918380834F5F5F4F1296EBCF46
:10110000C5010E94AC138C819D819C01220F331F6D
:101110008017910790F4E881F981E20FF31F30976F
:1011200029F0D7014D915C915183408301962E5F48
:101130003F4FEECF0C151D0510F41D830C83DF917E
:10114000CF911F910F91FF90EF90DF90CF90BF90C4
:10115000AF900895CF93DF9300D0CDB7DEB77A83F9
:101160006983BE016F5F7F4F02960E943D080F901A
:101170000F90DF91CF9108950895CF92DF92EF9273
:10118000FF920F931F93CF93DF936C017A018B0132
:10119000C0E0D0E0CE15DF0589F0D8016D918D015A
:1011A000D601ED91FC910190F081E02DC6010995E9
:1011B000892B11F47E0102C02196ECCFC701DF918B
:1011C000CF911F910F91FF90EF90DF90CF900895F6
:1011D000FC01918D828D981761F0828DDF01A80F3F
:1011E000B11D5D968C91928D9F5F9F73928F90E061
:1011F00008958FEF9FEF0895FC01918D828D9817D0
:1012000031F0828DE80FF11D858D90E008958FEF0C
:101210009FEF0895FC01918D228D892F90E0805CD5
:101220009F4F821B91098F739927089581EB93E05B
:101230000E940A0921E0892B09F420E0822F0895F9
:10124000FC01848DDF01A80FB11DA35ABF4F2C9163
:10125000848D90E001968F739927848FA689B78932
:101260002C93A089B1898C9180648C93938D848D0B
:10127000981306C00288F389E02D80818F7D8083DA
:101280000895EF92FF920F931F93CF93DF93EC019A
:1012900081E0888F9B8D8C8D981305C0E889F98932
:1012A000808185FD24C0F62E0B8D10E00F5F1F4F4F
:1012B0000F731127E02E8C8DE8120CC00FB607FCBF
:1012C000FACFE889F989808185FFF5CFCE010E94A8
:1012D0002009F1CF8B8DFE01E80FF11DE35AFF4F7E
:1012E000F0820B8FEA89FB898081806207C0EE89DA
:1012F000FF896083E889F98980818064808381E047
:1013000090E0DF91CF911F910F91FF90EF900895A2
:10131000CF93DF93EC01888D8823C9F0EA89FB899C
:10132000808185FD05C0A889B9898C9186FD0FC093
:101330000FB607FCF5CF808185FFF2CFA889B98968
:101340008C9185FFEDCFCE010E942009E7CFDF9180
:10135000CF91089580E090E0892B29F00E94160932
:1013600081110C9400000895CB0108950E94851707
:101370003FB7F89480918B0390918C03A0918D03DB
:10138000B0918E0326B5A89B05C02F3F19F001969A
:10139000A11DB11D3FBFBA2FA92F982F8827820FFB
:1013A000911DA11DB11DBC01CD0142E0660F771F4B
:1013B000881F991F4A95D1F708951F920F920FB673
:1013C0000F9211242F933F938F939F93AF93BF93CB
:1013D0008091870390918803A0918903B0918A033B
:1013E0003091860323E0230F2D3720F40196A11DB1
:1013F000B11D05C026E8230F0296A11DB11D209343
:1014000086038093870390938803A0938903B09306
:101410008A0380918B0390918C03A0918D03B091EE
:101420008E030196A11DB11D80938B0390938C03B5
:10143000A0938D03B0938E03BF91AF919F918F9135
:101440003F912F910F900FBE0F901F901895DC01C8
:10145000ED91FC910190F081E02D09941F920F9283
:101460000FB60F9211242F933F934F935F936F9377
:101470007F938F939F93AF93BF93EF93FF9381EBF2
:1014800093E00E942009FF91EF91BF91AF919F914E
:101490008F917F916F915F914F913F912F910F901D
:1014A0000FBE0F901F9018951F920F920FB60F92BC
:1014B00011242F938F939F93EF93FF93E091C10398
:1014C000F091C2038081E091C703F091C80382FDCF
:1014D00012C090818091CA038F5F8F732091CB03DC
:1014E000821751F0E091CA03F0E0EF54FC4F958F62
:1014F0008093CA0301C08081FF91EF919F918F91EA
:101500002F910F900FBE0F901F901895833081F090
:1015100028F4813099F08230A1F008958730A9F045
:101520008830B9F08430D1F4809180008F7D03C081
:10153000809180008F7780938000089584B58F77A5
:1015400002C084B58F7D84BD08958091B0008F77EF
:1015500003C08091B0008F7D8093B0000895009704
:1015600069F0FC0101900020E9F73197AF01481BB9
:10157000590BBC0181EB93E00C94BD0880E090E036
:1015800008950C94AF0A8F929F92AF92BF920F93DF
:101590001F93CF93DF93CDB7DEB7A1970FB6F89423
:1015A000DEBF0FBECDBF19A2423008F44AE08E0163
:1015B0000F5D1F4F842E912CA12CB12CA5019401FD
:1015C0000E944917E62FB901CA0101501109EA30FA
:1015D00014F4E05D01C0E95CD801EC93232B242BCB
:1015E000252B61F7C8010E94AF0AA1960FB6F894A7
:1015F000DEBF0FBECDBFDF91CF911F910F91BF9086
:10160000AF909F908F900895CF92DF92EF92FF92CC
:10161000CF93DF936C01990FEE08FF08F7FE19C016
:101620006DE281EB93E00E94270AEC0166277727A1
:10163000CB016C197D098E099F094AE00E94C30AFB
:101640008C0F9D1FDF91CF91FF90EF90DF90CF9097
:1016500008954AE0C701B601DF91CF91FF90EF9066
:10166000DF90CF900C94C30ACF93DF93282F30E004
:10167000F901EA58FE4F8491F901E657FE4FD491E3
:10168000F901E855FE4FC491CC2399F081110E94D5
:10169000860AEC2FF0E0EE0FFF1FE256FE4FA591F9
:1016A000B4918FB7F8949C91ED2FE095E923EC93DA
:1016B0008FBFDF91CF910895CF93DF93282F30E034
:1016C000F901EA58FE4F8491F901E657FE4FD49193
:1016D000F901E855FE4FC491CC2391F081110E948D
:1016E000860AEC2FF0E0EE0FFF1FE459FE4FA591A4
:1016F000B491EC91ED2381E090E021F480E002C010
:1017000080E090E0DF91CF910895CF93DF9390E058
:10171000FC01E657FE4F2491FC01E855FE4F8491F1
:10172000882361F190E0880F991FFC01EE59FE4F6C
:10173000C591D491FC01E256FE4FA591B49161117F
:1017400009C09FB7F8948881209582238883EC9103
:101750002E230BC0623061F49FB7F8943881822F3A
:10176000809583238883EC912E2B2C939FBF06C0FA
:101770008FB7F894E8812E2B28838FBFDF91CF910C
:1017800008958F929F92AF92BF92CF92DF92EF9285
:10179000FF926B017C010E94B8094B015C01C114EE
:1017A000D104E104F104F1F00E94B809DC01CB019D
:1017B00088199909AA09BB09883E9340A105B1057A
:1017C00070F321E0C21AD108E108F10888EE880E12
:1017D00083E0981EA11CB11CC114D104E104F104E2
:1017E00019F7DDCFFF90EF90DF90CF90BF90AF90D3
:1017F0009F908F900895CF93DF93CDB7DEB7679713
:101800000FB6F894DEBF0FBECDBF789484B582606A
:1018100084BD84B5816084BD85B5826085BD85B594
:10182000816085BD80916E00816080936E00109212
:10183000810080918100826080938100809181008D
:10184000816080938100809180008160809380001E
:101850008091B10084608093B1008091B00081607C
:101860008093B00080917A00846080937A008091A8
:101870007A00826080937A0080917A008160809300
:101880007A0080917A00806880937A001092C1007B
:101890008091A00387FD07C061E00E94850B8091C5
:1018A000A0030E94340B81E080939B038AE993E0BC
:1018B0000E940505E091C103F091C20382E080839C
:1018C000E091BD03F091BE031082E091BF03F0915F
:1018D000C00387E080831092C903E091C503F091B3
:1018E000C60386E08083E091C303F091C403808146
:1018F00080618083E091C303F091C403808188609C
:101900008083E091C303F091C40380818068808369
:10191000E091C303F091C40380818F7D80838EE7C3
:1019200092E00E94C10A60E08AE00E94850B60E0BC
:1019300084E00E94850B61E08DE00E94850BE9E167
:10194000F3E0119283E0E538F807D9F788E090E0FA
:101950000E941713FC01AEE0CA2EA1E0DA2ED1825C
:10196000C08212821382148201E00583EE24EA947D
:10197000FE2CF782E6829E8B8D8BBE016B5E7F4FC5
:1019800081E993E00E943D0888E090E00E941713EF
:10199000FC01D182C0821FEF12831382148205835F
:1019A000F782E6829C8B8B8BBE016D5E7F4F81E957
:1019B00093E00E943D0888E090E00E941713FC012C
:1019C000D182C0821282138314820583F782E68259
:1019D0009A8B898BBE016F5E7F4F81E993E00E94F5
:1019E0003D0888E090E00E941713FC01D182C0827C
:1019F0001282138214830583F782E682988B8F8785
:101A0000BE01615F7F4F81E993E00E943D0888E05D
:101A100090E00E941713FC01D182C08212831383CD
:101A200014830583F782E6829E878D87BE01635FFC
:101A30007F4F81E993E00E943D0888E090E00E949A
:101A40001713FC01D182C0821283138386E384833F
:101A50000583F782E682FC87EB87BE01655F7F4FD7
:101A600081E993E00E943D0888E090E00E9417130E
:101A7000FC01D182C0821283138214830583F78212
:101A8000E6829A878987BE01675F7F4F81E993E08D
:101A90000E943D0888E090E00E941713FC01D1826B
:101AA000C0821283138314820583F782E6829887AB
:101AB0008F83BE01695F7F4F81E993E00E943D08FB
:101AC00088E090E00E941713FC01D182C08283E974
:101AD0008283138314820583F782E682FE83ED837B
:101AE000BE016B5F7F4F81E993E00E943D0888E073
:101AF00090E00E941713FC01D182C082128385EA14
:101B0000838314820583F782E682FC83EB83BE0124
:101B10006D5F7F4F81E993E00E943D0880919803BB
:101B20009091990320919503309196038217930722
:101B300010F00E948517880F991FE0919103F09192
:101B40009203E80FF91F80819181DC01ED91FC91F6
:101B50000190F081E02D6AE973E009958BE090E057
:101B60000E9417138C018AE192E0F801918380832F
:101B700088E090E0958384831782168280E190E06C
:101B80000E941713D80113969C938E9312971A965E
:101B90001C921E9219978AE892E00E94C10A69E19C
:101BA000662E63E0762E72E3E72EF12CC12CD12C49
:101BB000812C912CEEE0AE2EE1E0BE2E3324339446
:101BC00089E992E00E94C10AC4010E94040B8DE9D8
:101BD00092E00E94C10AC6010E94040B8EE692E0C8
:101BE0000E94C10AC7010E944716282EF301819363
:101BF0003F018114910421F1F1E08F16910411F15C
:101C000082E088169104F9F4D801ED91FC9182806C
:101C1000938088E090E00E941713FC01B182A082BB
:101C20004282538224823582D782C682BC01C80197
:101C3000F4010995FFEFCF1ADF0A812C912C06C021
:101C4000482E01C0582E8FEF881A980AAFEFEA1A73
:101C5000FA0ABEE9EB16F10409F0B2CF82EA92E08B
:101C60000E94C10A1A830983BE016F5F7F4F81E919
:101C700093E00E943D0843E0E42EF12C84E00E94B2
:101C80005C0B892BB1F18091980390919903019697
:101C90009093990380939803209195033091960334
:101CA0008217930720F01092990310929803809165
:101CB0009803909199038217930708F03ACF880F01
:101CC000991FE0919103F0919203E80FF91F808131
:101CD0009181DC01ED91FC910190F081E02D6AE9A8
:101CE00073E0099564EF71E080E090E00E94C10B21
:101CF000C1C08AE00E945C0B892B21F18FE893E040
:101D00000E94BB02809198039091990320919503C2
:101D1000309196038217930708F00BCF880F991F15
:101D2000E0919103F0919203E80FF91F8081918176
:101D3000DC01ED91FC910190F081E02D6AE973E006
:101D4000099598C081EB93E00E940A09892B09F458
:101D500091C009E113E02FB7F89480918703909127
:101D60008803A0918903B0918A032FBF8093B903A0
:101D70009093BA03A093BB03B093BC03E091B1036B
:101D8000F091B2030680F781E02D81EB93E0099595
:101D900097FD0DC0F80181938F01F3E006381F070E
:101DA000D1F680918503813009F03EC025C02FB760
:101DB000F8948091870390918803A0918903B09152
:101DC0008A032FBF4091B9035091BA036091BB03BE
:101DD0007091BC03841B950BA60BB70B4091B50308
:101DE0005091B6036091B7037091B80384179507BB
:101DF000A607B70718F2D5CF89E1C82E83E0D82E01
:101E000002E310E0D6016D916D01C8016F8B0E9455
:101E100047166F89681719F0C8010E944F160F5FA7
:101E20001F4F0E39110571F780918503811122C072
:101E3000C12CD12CF601E75EFC4F0281218140814B
:101E4000C601B7010E94351780919C0390919D03B4
:101E50006817790720F48AE993E00E94BC04B3E094
:101E6000CB0ED11CECE6CE16D10421F78AE993E023
:101E70000E9405050E94AA0901CF8FE893E00E9405
:101E800055048091A2039091A303009711F00E9442
:101E9000AC138091A00387FD03C060E00E94850B16
:101EA0008AE594E00E94160488E894E00C94C80344
:101EB0008F929F92AF92BF92CF92DF92EF92FF925A
:101EC00081EB93E01092B4031092B30328EEC22E7C
:101ED00023E0D22EE12CF12CC092B503D092B603B0
:101EE000E092B703F092B80324E431E03093B203F8
:101EF0002093B10325EC30E03093BE032093BD0363
:101F000024EC30E03093C0032093BF0320EC30E09A
:101F10003093C2032093C10321EC30E03093C4031B
:101F20002093C30322EC30E03093C6032093C50313
:101F300026EC30E03093C8032093C7031092CA0305
:101F40001092CB031092CC031092CD0361E270E0AB
:101F50007093A00460939F041092A1041092A204B5
:101F60001092A30436E0832E912CA12CB12C8092E8
:101F7000A4049092A504A092A604B092A704109283
:101F8000A8041092A9041092AA041092AB0440E293
:101F90004093AC041092AE041092AD041092B104C0
:101FA0002AE834E03093B0042093AF0422EE31E00D
:101FB00030938904209388042CEE31E030939D0403
:101FC00020939C0410928E0410928D041092900421
:101FD00010928F0410929204109291041092940423
:101FE0001092930410929604109295041092980403
:101FF0001092970420EC31E030938B0420938A04F4
:1020000090939B0480939A0450E1509399047093A9
:1020100076046093750410927704109278041092FD
:10202000790480927A0490927B04A0927C04B0920E
:102030007D0410927E0410927F041092800410920E
:1020400081044093820410928404109283041092BD
:10205000870410925C0410925D0410925E0410924A
:102060005F0440E654E050938604409385044AE6BA
:1020700051E050935B0440935A0444E751E050937D
:1020800073044093720410926404109263041092DB
:10209000660410926504109268041092670410920E
:1020A0006A041092690410926C0410926B041092EE
:1020B0006E0410926D043093610420936004909339
:1020C00071048093700428E020936F049093B00310
:1020D0008093AF0369E172E081E392E00E942211F4
:1020E0001092510410925004C0925204D0925304A2
:1020F000E0925404F09255048CEF91E090934F04D9
:1021000080934E0410929B031092A1031092A80397
:102110001092A9031092AA031092AB0381E080935E
:10212000A7038093A4031092A50392E09093A603C3
:1021300080939A038CE690E090939F0380939E0394
:102140000E9417139093A3038093A203009761F05A
:102150002CE6FC0111922A95E9F784E290E0909335
:102160009D0380939C0308C010929F0310929E03CE
:1021700010929D0310929C0385E08093A0038091B0
:102180009B03882339F061E085E00E94850B85E0A0
:102190000E94340BEDEAF1E0E491F0E0EE0FFF1F56
:1021A000E256FE4F859194919093AD038093AC03DA
:1021B000EFE8F1E0E491E093AE038AE192E09093DE
:1021C000900380938F0388E090E090939403809332
:1021D0009303109296031092950380E190E00E9481
:1021E0001713909392038093910310929903109286
:1021F0009803FF90EF90DF90CF90BF90AF909F90AB
:102200008F900895EF920F931F93CF93DF93E80180
:1022100047FD02C034E001C034E1E42F440FFF0B5E
:10222000F7FF03C0F195E195F109E32E022F2E2F60
:10223000AE010E948911CE01DF91CF911F910F91C4
:10224000EF9008950F931F93CF93DF93009731F48E
:102250006115710519F480E090E03AC08B01EC0142
:102260006EE070E081E090E00E946D11FC01892B2E
:1022700091F380E883830115110571F013870287BC
:1022800081E883838091B2049091B304892B21F477
:10229000F093B304E093B2042097C9F0D187C087CC
:1022A0008381826083838091B4049091B504892BEB
:1022B00071F4F093B504E093B4048091B604909166
:1022C000B704892B21F4F093B704E093B604CF014F
:1022D000DF91CF911F910F9108950F931F93CF938B
:1022E000DF93869F8001879F100D969F100D11240C
:1022F000C8010E941713EC01009729F0A80160E0C3
:1023000070E00E941C15CE01DF91CF911F910F91BB
:1023100008954F925F926F927F929F92AF92BF9279
:10232000CF92DF92EF92FF920F931F93CF93DF93A1
:10233000CDB7DEB729970FB6F894DEBF0FBECDBF7D
:102340006A01122FB02E2BE3201720F0FF24F39404
:10235000F00E02C0BCE3FB2E0F2D27E0AE014F5F55
:102360005F4F0E944414AC018981982F997091307D
:1023700031F0E1FC06C0E0FE06C090E205C09DE23F
:1023800003C09BE201C090E0EE2DE07183FF3CC0F2
:10239000911102C083E001C084E0811718F4212F5D
:1023A000281B01C020E0E1110BC0F601822F30E2B2
:1023B000882319F031938150FBCFC20ED11C20E04D
:1023C000992329F0D6019C93F60131966F01C6013D
:1023D0000396E2FE0AC03EE4D6013C9341E4119626
:1023E0004C93119712963C9306C03EE6F60130835B
:1023F00041E641833283FC01322F40E2332309F46A
:1024000042C041933150FACF82FF44C0911102C0C3
:1024100083E001C084E0811718F4212F281B01C03C
:1024200020E0E1110BC0F601822F30E2882319F081
:1024300031938150FBCFC20ED11C20E0992329F0AB
:10244000D6019C93F60131966F01C6010396E2FE18
:102450000BC039E4D6013C933EE411963C931197AE
:1024600036E412963C9307C039E6F60130833EE627
:10247000318336E63283FC01322F40E2332319F0F8
:1024800041933150FBCFFC01E20FF11D10828EEF22
:102490009FEFB7C0F1E0911101C0F0E06F2F70E045
:1024A0001416150624F49A012F5F3F4F02C021E055
:1024B00030E0260F371FBB2029F06B2D70E06F5FD7
:1024C0007F4F02C060E070E0260F371F612F70E081
:1024D000261737071CF4121B212F01C020E03E2DC8
:1024E000387159F4D601322F60E2332319F06D931D
:1024F0003150FBCFC20ED11C20E0FF2331F0D601BA
:102500009C93B6016F5F7F4F6B01E1110BC0F60129
:10251000922F30E3992319F031939150FBCFC20EE3
:10252000D11C20E09F2D940F3A81782F7071A72E37
:1025300084FF03C0313309F49150191624F4993003
:1025400018F098E001C091E0E42F852F57FF02C0FA
:10255000E0E080E06E2F782FE0E0F0E0AEE29A2E2F
:102560003A01691A71082A01461A570A0B2D10E020
:102570001195019511096F3F8FEF780729F4D60166
:102580009C92C60101966C014617570784F06616A7
:1025900077066CF47F01E40CF51CA1E0B0E0AC0F11
:1025A000BD1FEA0EFB1ED7011196BC9002C090E33E
:1025B000B92E615071093196C60101967C016017F0
:1025C000710724F0D601BC926C01D5CF6417750752
:1025D00041F4363320F4353321F4A11002C081E3F5
:1025E000B82EF601B082F701822F90E2882319F00D
:1025F00091938150FBCFF701E20FF11D108280E033
:1026000090E029960FB6F894DEBF0FBECDBFDF91E4
:10261000CF911F910F91FF90EF90DF90CF90BF90DF
:10262000AF909F907F906F905F904F900895CF9361
:10263000DF938230910510F482E090E0E091BA04DB
:10264000F091BB0420E030E0C0E0D0E0309711F121
:102650004081518148175907C0F04817590761F464
:1026600082819381209719F09B838A832BC090935A
:10267000BB048093BA0426C02115310519F0421716
:10268000530718F49A01BE01DF01EF010280F381C4
:10269000E02DDCCF2115310509F1281B390B243041
:1026A000310590F412968D919C91139761157105E7
:1026B00021F0FB019383828304C09093BB04809339
:1026C000BA04FD01329644C0FD01E20FF31F81936D
:1026D0009193225031092D933C933AC02091B80434
:1026E0003091B904232B41F4209106013091070168
:1026F0003093B9042093B80420910401309105016E
:102700002115310541F42DB73EB740910801509194
:102710000901241B350BE091B804F091B904E217CC
:10272000F307A0F42E1B3F0B2817390778F0AC01F4
:102730004E5F5F4F2417350748F04E0F5F1F5093D1
:10274000B9044093B8048193919302C0E0E0F0E0B3
:10275000CF01DF91CF9108950F931F93CF93DF9314
:10276000009709F48CC0FC01329713821282009109
:10277000BA041091BB040115110581F42081318147
:10278000820F931F2091B8043091B904281739079C
:1027900079F5F093B904E093B80471C0D80140E032
:1027A00050E0AE17BF0750F412962D913C9113974D
:1027B000AD012115310509F1D901F3CF9D01DA01F0
:1027C0003383228360817181860F971F821793075D
:1027D00069F4EC0128813981260F371F2E5F3F4FA6
:1027E000318320838A819B8193838283452B29F4C3
:1027F000F093BB04E093BA0442C01396FC93EE93AB
:102800001297ED01499159919E01240F351FE2174E
:10281000F30771F480819181840F951F02961196C0
:102820009C938E938281938113969C938E9312979F
:10283000E0E0F0E0D80112968D919C9113970097FB
:1028400019F0F8018C01F6CF8D919C9198012E5FC3
:102850003F4F820F931F2091B8043091B90428177D
:10286000390769F4309729F41092BB041092BA0426
:1028700002C0138212821093B9040093B804DF914E
:10288000CF911F910F910895283008F027E033274A
:10289000DA01990F311D87FD916000966105710580
:1028A00039F432602E5F3D9330E32A95E1F70895C5
:1028B0009F3F30F080387105610509F03C5F3C5F57
:1028C0003D93913008F08068911DDF93CF931F9363
:1028D0000F93FF92EF92192F987F9695E92F969577
:1028E0009695E90FFF27EE53FF4F99273327EE24E4
:1028F000FF24A701E70105900894079428F4360FF8
:10290000E71EF81E491F511D660F771F881F991F6C
:102910000694A1F70590079428F4E70EF81E491FC6
:10292000561FC11D770F881F991F661F0694A1F7B8
:102930000590079428F4F80E491F561FC71FD11D94
:10294000880F991F661F771F0694A1F705900794BB
:1029500020F4490F561FC71FD81F990F661F771FF6
:10296000881F0694A9F784911095177041F0D695A9
:10297000C79557954795F794E7941A95C1F7E8E6F8
:10298000F0E06894159015913591659195910590B9
:102990007FE27395E118F10A430B560BC90BD0097E
:1029A000C0F7E10CF11E431F561FC91FD01D7EF456
:1029B000703311F48A95E6CFE894015030F0080F97
:1029C0000AF40027021708F4202F2395022F7A33E8
:1029D00028F079E37D932A95E9F710C07D932A9535
:1029E00089F6069497956795379517951794E1188A
:1029F000F10A430B560BC90BD00998F023957E9131
:102A000073957A3308F070E37C932013B8F77E91C6
:102A100070617D9330F0839571E37D9370E32A9527
:102A2000E1F71124EF90FF900F911F91CF91DF916B
:102A3000992787FD90950895DC0101C06D93415061
:102A40005040E0F708950E94651508F481E008956C
:102A5000E89409C097FB3EF4909580957095619538
:102A60007F4F8F4F9F4F9923A9F0F92F96E9BB27EE
:102A70009395F695879577956795B795F111F8CF6A
:102A8000FAF4BB0F11F460FF1BC06F5F7F4F8F4FD5
:102A90009F4F16C0882311F096E911C0772321F0CB
:102AA0009EE8872F762F05C0662371F096E8862F63
:102AB00070E060E02AF09A95660F771F881FDAF7BA
:102AC000880F9695879597F90895990F0008550FE7
:102AD000AA0BE0E8FEEF16161706E807F907C0F0A4
:102AE00012161306E407F50798F0621B730B840BAC
:102AF000950B39F40A2661F0232B242B252B21F486
:102B000008950A2609F4A140A6958FEF811D811D25
:102B100008950E949C150C940D160E94FF1538F024
:102B20000E94061620F0952311F00C94F6150C94D3
:102B3000FC1511240C9441160E941E1670F3959FEB
:102B4000C1F3950F50E0551F629FF001729FBB27A4
:102B5000F00DB11D639FAA27F00DB11DAA1F649F40
:102B60006627B00DA11D661F829F2227B00DA11DF3
:102B7000621F739FB00DA11D621F839FA00D611D79
:102B8000221F749F3327A00D611D231F849F600D9A
:102B9000211D822F762F6A2F11249F5750409AF0C3
:102BA000F1F088234AF0EE0FFF1FBB1F661F771F4F
:102BB000881F91505040A9F79E3F510580F00C941A
:102BC000F6150C9441165F3FE4F3983ED4F38695D6
:102BD00077956795B795F795E7959F5FC1F7FE2BBA
:102BE000880F911D9695879597F9089597F99F6796
:102BF00080E870E060E008959FEF80EC0895002485
:102C00000A941616170618060906089500240A9451
:102C100012161306140605060895092E0394000CD7
:102C200011F4882352F0BB0F40F4BF2B11F460FF66
:102C300004C06F5F7F4F8F4F9F4F089557FD90588F
:102C4000440F551F59F05F3F71F04795880F97FB70
:102C5000991F61F09F3F79F087950895121613062A
:102C60001406551FF2CF4695F1DF08C01616170659
:102C70001806991FF1CF869571056105089408958E
:102C8000E894BB2766277727CB0197F90895F99930
:102C9000FECF92BD81BDF89A992780B50895262F61
:102CA000F999FECF1FBA92BD81BD20BD0FB6F89431
:102CB000FA9AF99A0FBE019608952F923F924F9279
:102CC0005F926F927F928F929F92AF92BF92CF92BC
:102CD000DF92EF92FF920F931F93CF93DF93CDB7C5
:102CE000DEB7CA1BDB0B0FB6F894DEBF0FBECDBF3D
:102CF00009942A88398848885F846E847D848C840E
:102D00009B84AA84B984C884DF80EE80FD800C8116
:102D10001B81AA81B981CE0FD11D0FB6F894DEBFF9
:102D20000FBECDBFED0108955058BB27AA270E94C2
:102D3000AC160C940D160E94FF1538F00E94061672
:102D400020F039F49F3F19F426F40C94FC150EF48E
:102D5000E095E7FB0C94F615E92F0E941E1658F338
:102D6000BA17620773078407950720F079F4A6F570
:102D70000C9440160EF4E0950B2EBA2FA02D0B01EB
:102D8000B90190010C01CA01A0011124FF27591BB0
:102D900099F0593F50F4503E68F11A16F040A22FB6
:102DA000232F342F4427585FF3CF46953795279527
:102DB000A795F0405395C9F77EF41F16BA0B620B26
:102DC000730B840BBAF09150A1F0FF0FBB1F661F6D
:102DD000771F881FC2F70EC0BA0F621F731F841FB0
:102DE00048F4879577956795B795F7959E3F08F0D6
:102DF000B0CF9395880F08F09927EE0F9795879598
:102E000008950E94261688F09F5798F0B92F9927A9
:102E1000B751B0F0E1F0660F771F881F991F1AF0C5
:102E2000BA95C9F714C0B13091F00E944016B1E0D4
:102E300008950C944016672F782F8827B85F39F0D3
:102E4000B93FCCF3869577956795B395D9F73EF45E
:102E500090958095709561957F4F8F4F9F4F089506
:102E60000E94651508F48FEF089597FB072E16F45E
:102E7000009407D077FD09D00E946B1707FC05D09E
:102E80003EF4909581959F4F0895709561957F4F81
:102E90000895A1E21A2EAA1BBB1BFD010DC0AA1F9B
:102EA000BB1FEE1FFF1FA217B307E407F50720F0B3
:102EB000A21BB30BE40BF50B661F771F881F991F2E
:102EC0001A9469F760957095809590959B01AC0177
:102ED000BD01CF010895AA1BBB1B51E107C0AA1F6A
:102EE000BB1FA617B70710F0A61BB70B881F991FAB
:102EF0005A95A9F780959095BC01CD010895EE0FE4
:102F0000FF1F0590F491E02D099481E090E0F89482
:102F10000C942B1AAEE0B0E0E0E9F7E10C946B16EC
:102F20000D891E8986E08C831A8309838FEF9FE7C2
:102F30009E838D83AE01475E5F4F6F89788DCE0192
:102F400001960E94AD172F813885F801E20FF31F1B
:102F500010822E96E4E00C948716ACE0B0E0E3EB30
:102F6000F7E10C945D167C016B018A01FC0117826C
:102F70001682838181FFBDC1CE0101964C01F7010C
:102F80009381F60193FD859193FF81916F018823D1
:102F900009F4ABC1853239F493FD859193FF81919A
:102FA0006F01853229F4B70190E00E949519E7CFAF
:102FB000512C312C20E02032A0F48B3269F030F417
:102FC000803259F0833269F420612CC08D3239F09F
:102FD000803339F4216026C02260246023C0286039
:102FE00021C027FD27C030ED380F3A3078F426FF96
:102FF00006C0FAE05F9E300D1124532E13C08AE004
:10300000389E300D1124332E20620CC08E3221F4F4
:1030100026FD6BC1206406C08C3611F4206802C006
:10302000883641F4F60193FD859193FF81916F01FC
:103030008111C1CF982F9F7D9554933028F40C5F58
:103040001F4FFFE3F9830DC0833631F0833771F0F2
:10305000833509F05BC022C0F801808189830E5F4F
:103060001F4F44244394512C540115C03801F2E001
:103070006F0E711CF801A080B18026FF03C0652D82
:1030800070E002C06FEF7FEFC5012C870E948A19A4
:103090002C0183012C852F77222E17C03801F2E0F6
:1030A0006F0E711CF801A080B18026FF03C0652D52
:1030B00070E002C06FEF7FEFC5012C870E947F197F
:1030C0002C012C852068222E830123FC1BC0832D1C
:1030D00090E048165906B0F4B70180E290E00E94F3
:1030E00095193A94F4CFF50127FC859127FE81913B
:1030F0005F01B70190E00E94951931103A94F1E018
:103100004F1A51084114510471F7E5C0843611F08B
:10311000893639F5F80127FF07C060817181828106
:1031200093810C5F1F4F08C060817181072E000CD6
:10313000880B990B0E5F1F4F2F76722E97FF09C0D9
:1031400090958095709561957F4F8F4F9F4F206828
:10315000722E2AE030E0A4010E94CD19A82EA818F2
:1031600044C0853729F42F7EB22E2AE030E025C0F6
:10317000F22FF97FBF2E8F36C1F018F4883579F021
:10318000B4C0803719F0883721F0AFC02F2F2061ED
:10319000B22EB4FE0DC08B2D8460B82E09C024FF62
:1031A0000AC09F2F9660B92E06C028E030E005C007
:1031B00020E130E002C020E132E0F801B7FE07C0B4
:1031C00060817181828193810C5F1F4F06C0608195
:1031D000718180E090E00E5F1F4FA4010E94CD1925
:1031E000A82EA818FB2DFF777F2E76FE0BC0372D5B
:1031F0003E7FA51450F474FE0AC072FC08C0372D3F
:103200003E7E05C0BA2C372D03C0BA2C01C0B52CA8
:1032100034FF0DC0FE01EA0DF11D8081803311F4F1
:10322000397E09C032FF06C0B394B39404C0832F23
:10323000867809F0B39433FD13C030FF06C05A2CD2
:10324000B31418F4530C5B18B32CB31468F4B7011F
:1032500080E290E03C870E949519B3943C85F5CFBD
:10326000B31410F43B1801C0312C34FF12C0B70165
:1032700080E390E03C870E9495193C8532FF17C09F
:1032800031FD03C088E790E002C088E590E0B70117
:103290000CC0832F867859F031FF02C08BE201C049
:1032A00080E237FD8DE2B70190E00E949519A514E8
:1032B00038F4B70180E390E00E9495195A94F7CF53
:1032C000AA94F401EA0DF11D8081B70190E00E94FB
:1032D0009519A110F5CF332009F451CEB70180E242
:1032E00090E00E9495193A94F6CFF7018681978174
:1032F00002C08FEF9FEF2C96E2E10C947916FC014F
:103300000590615070400110D8F7809590958E0F10
:103310009F1F0895FC016150704001900110D8F783
:10332000809590958E0F9F1F08950F931F93CF93B5
:10333000DF93FB01238121FD03C08FEF9FEF28C0A6
:1033400022FF16C0468157812481358142175307D9
:1033500044F4A081B1819D012F5F3F4F31832083D1
:103360008C93268137812F5F3F4F3783268310C090
:10337000EB01092F182F0084F185E02D0995892B89
:10338000E1F68E819F8101969F838E83812F902FFE
:10339000DF91CF911F910F910895FA01AA2728304C
:1033A00051F1203181F1E8946F936E7F6E5F7F4F12
:1033B0008F4F9F4FAF4FB1E03ED0B4E03CD0670F8E
:1033C000781F891F9A1FA11D680F791F8A1F911DE1
:1033D000A11D6A0F711D811D911DA11D20D009F431
:1033E00068943F912AE0269F11243019305D319373
:1033F000DEF6CF010895462F4770405D4193B3E05C
:103400000FD0C9F7F6CF462F4F70405D4A3318F002
:10341000495D31FD4052419302D0A9F7EACFB4E0B3
:10342000A6959795879577956795BA95C9F700976B
:103430006105710508959B01AC010A2E069457950C
:10344000479537952795BA95C9F7620F731F841F63
:10345000951FA01D089510E0CFEDD0E004C0FE013F
:103460000E947F172196C03ED107C9F7F894FFCF7D
:103470000000803F0000BC048000000000000B063C
:103480004003BC086E04E3021800000000000000C6
:103490000000E8FFE8FF000000000000140000004A
:1034A000000000000000ECFFECFF00000000000046
:1034B000000000004109BD080A09E808FC08880965
:1034C000060000000000F503F703FAFFFAFF000012
:1034D000F603F90318000000000016042D04E8FFAD
:1034E000E8FF0000230437046A011E01280174016B
:1034F00000000000AF04F3031802150212020F02CD
:103500000C0283017F017C01660186010A01B40976
:1035100002000000000043044504FEFFFEFF00001F
:103520004404470400000000B104510400000000FE
:10353000B00441041802150212020F020C0200022C
:10354000BA01A10188018601620341031400000051
:103550000000C803DF03ECFFECFF0000D503E90324
:10356000E20132013C01EC0100000000AA029602D7
:103570005D025A025702560200000000D0054003C7
:103580003C085304E202000000007004AA0855043D
:103590006404BB0273686F7720696E20636F6C6F81
:1035A000725461626C65200073686F7720696E20C9
:1035B00073686F7761626C650A00523A2025642C4B
:1035C00020473A2025642C20423A2025642C2042B2
:1035D000523A2025732C20504F533A2025640A007C
:1035E00073696E676C6520706978656C0A00737426
:1035F00061727420736574757000737461727420E5
:1036000072656164696E670A006A3D2000206B3D47
:083610002000656E640A000051
:00000001FF
