:100000000C9463000C948B000C948B000C94E40310
:100010000C94E4030C94E4030C948B000C948B007C
:100020000C948B000C948B000C948B000C948B0024
:100030000C948B000C948B000C948B000C948B0014
:100040000C947F090C948B000C94F6090C94D00945
:100050000C948B000C948B000C948B000C948B00F4
:100060000C94EE030C948B000000000800020100C9
:100070000003040700000000000000000102040863
:100080001020408001020408102001020408102002
:1000900000000000250028002B00040404040404D0
:1000A000040402020202020203030303030300002A
:1000B0000000240027002A00000000002300260082
:1000C0002900280AF60E11241FBECFEFD8E0DEBFAC
:1000D000CDBF12E0A0E0B1E0EEE8F5E202C005908D
:1000E0000D92A630B107D9F724E0A6E0B2E001C036
:1000F0001D92AA31B207E1F710E0C2E6D0E004C0D9
:100100002197FE010E94AF12C136D107C9F70E94A4
:10011000D50C0C94BA120C940000FC01918D228D28
:10012000892F90E0805C9F4F821B91098F739927E4
:10013000089580E090E0892B29F00E941F0881112A
:100140000C9400000895CB0108957F928F929F92A6
:10015000AF92BF92CF92DF92EF92FF920F931F93D5
:10016000CF93DF93EC0149015A018B01C12CD12CB3
:100170007601C814D904EA04FB0484F5F8017190EF
:100180008F018F8580FF0BC0E881F9810084F185A4
:10019000E02D20E144E060E070E0CE010995EB85C0
:1001A000FC858D859E85E817F90738F470828B856C
:1001B0009C8501969C878B870BC0E881F981672D10
:1001C00070E0028CF38DE02DCE010995019649F087
:1001D0002FEFC21AD20AE20AF20ACBCFB401C5014C
:1001E00002C0B601C701DF91CF911F910F91FF901F
:1001F000EF90DF90CF90BF90AF909F908F907F90C7
:100200000895CF93DF93EC01E881F9810288F389A7
:10021000E02D09958F3F2FEF920731F02D813E8120
:100220002F5F3F4F3E832D83DF91CF9108958FEF56
:100230009FEF089560E070E0CB01089580E090E0CA
:100240000895CB010895CF93DF93EC0188899989B4
:10025000DC01ED91FC910480F581E02D0995892B5D
:10026000A9F388899989DC01ED91FC910680F781D9
:10027000E02DDF91CF910994CF93DF93EC01888932
:100280009989DC01ED91FC910480F581E02D0995BF
:10029000892BA9F388899989DC01ED91FC9100846F
:1002A000F185E02DDF91CF910994AF92BF92CF926B
:1002B000DF92EF92FF920F931F93CF93DF9300D0C3
:1002C00000D0CDB7DEB78C015B01C12CD12C7601FB
:1002D000F80180899189DC01ED91FC910680F7811C
:1002E000E02D29833A834B835C83099529813A81E8
:1002F0004B815C818F3F71F0C216D306E406F50690
:100300004CF4D5018D935D01BFEFCB1ADB0AEB0AEC
:10031000FB0ADECFC701B6010F900F900F900F9030
:10032000DF91CF911F910F91FF90EF90DF90CF90D1
:10033000BF90AF900895DC0150968D919C9151979C
:10034000DC01ED91FC910480F581E02D099480E0C1
:1003500090E0089580E090E0089580E090E00895B6
:1003600080E090E008950895CF93DF93C091190342
:10037000D0911A03E881F9810480F581E02DCE0146
:100380000995892BB9F3E881F9810680F781E02D81
:10039000CE01DF91CF9109941F93CF93DF93182F54
:1003A000C0911903D0911A038A3041F4E881F98190
:1003B0000190F081E02D6DE0CE010995E881F98191
:1003C0000190F081E02D612FCE01099521E030E010
:1003D000019711F420E030E0C901DF91CF911F9126
:1003E000089508958FEF9FEF08958FEF9FEF089581
:1003F0008091740290E0919581959109089585ED21
:100400008093BC008091BC0084FDFCCF10924E0212
:10041000089540912802262F30E0240F311D21320B
:100420003105DCF420914E022430C9F4FC0180E057
:1004300090E0861758F4309128022191DC01AA5FE0
:10044000BD4FA30FB11D2C930196F3CF80912802CD
:10045000680F6093280280E0089581E0089582E0AB
:100460000895CF93DF9300D0CDB7DEB7CB01642FD3
:1004700049835A830E9409024981842F5A81952F0A
:100480000F900F90DF91CF910895CF93DF931F923C
:10049000CDB7DEB7698361E0CE0101960E94090203
:1004A00081E090E00F90DF91CF910895DC01ED9114
:1004B000FC910190F081E02D09940E94B5120F93F8
:1004C0001F93CF93DF938C01EB016F3F8FEF780782
:1004D00019F480E090E00FC06A3031F46DE0F8016B
:1004E000808991890E94C9096C2FF80180899189BE
:1004F0000E94C909CE01DF91CF911F910F910895FC
:100500008F929F92BF92CF92DF92EF92FF920F93C2
:100510001F93CF93DF9300D000D0CDB7DEB78C010F
:100520004B01C12CD12C7601C216D306E406F50688
:1005300044F5F401B1904F01FAE0BF120EC06DE036
:10054000F8018089918929833A834B835C830E94D7
:10055000C9095C814B813A8129816B2DF801808921
:10056000918929833A834B835C830E94C909FFEFF9
:10057000CF1ADF0AEF0AFF0A5C814B813A81298199
:10058000D3CFCA01B9010F900F900F900F90DF9158
:10059000CF911F910F91FF90EF90DF90CF90BF9080
:1005A0009F908F9008950C940D100C940D10089549
:1005B00008950C940D10DC01ED91FC91369720818B
:1005C0003181820F931F0C94D902FB01208131816C
:1005D000FC0131832083FB0142815381F90136976D
:1005E00020813181FC01E20FF31F51834083089584
:1005F00028E531E0FC013183208322E631E0318FB0
:10060000208F68E671E00C94E502DC01ED91FC912D
:10061000369720813181820F931F0C94F802CF937B
:10062000DF93EC010E94F802CE01DF91CF910C9490
:100630000D10DC01ED91FC91369720813181820F04
:10064000931F0C940F030C940D10089508950C94AF
:100650000D10DC01ED91FC91369720813181820FE4
:10066000931F0C942703FB0120813181FC0131830E
:100670002083FB0142815381F9013697208131812A
:10068000FC01E20FF31F51834083089520ED31E018
:10069000FC01318320832AED31E0358B248B60EE21
:1006A00071E00C943303DC01ED91FC9136972081CD
:1006B0003181820F931F0C944603CF93DF93EC019B
:1006C0000E944603CE01DF91CF910C940D10DC0106
:1006D000ED91FC91369720813181820F931F0C940C
:1006E0005D030C940D10EF92FF920F931F93CF9325
:1006F000DF93EC0182E092E0998388838E819F8171
:10070000892BB9F0E12CF12C00E010E08E819F8163
:100710000817190760F48A819B818E0D9F1D0E9426
:1007200056020F5F1F4F8EE0E80EF11CEFCF1F82C5
:100730001E82E12CF12C00E010E02E813F818A81A5
:100740009B810217130750F48E0D9F1D0E945602C5
:100750000F5F1F4F8EE0E80EF11CEFCFDF91CF91BE
:100760001F910F91FF90EF900C940D10CF93DF939A
:10077000EC010E947303CE01DF91CF910C940D1018
:10078000FC01848DDF01A80FB11DA35ABF4F2C912E
:10079000848D90E001968F739927848FA689B789FD
:1007A0002C93A089B1898C9180648C93938D848DD6
:1007B000981306C00288F389E02D80818F7D8083A5
:1007C00008950895089508951F920F920FB60F92FD
:1007D00011240F900FBE0F901F9018951F920F922B
:1007E0000FB60F9211242F933F934F935F936F9304
:1007F0007F938F939F93AF93BF93EF93FF938091DA
:10080000B900887F803609F49CC068F5883209F405
:100810005BC090F4803109F454C038F4882309F4A3
:10082000F6C0883009F44DC0F6C0883109F44CC0D8
:10083000803209F45DC0EFC0803409F468C048F428
:10084000803309F455C0883309F0E5C080934D0228
:10085000D8C0803509F44FC0883509F45DC08834AC
:1008600009F0D9C0D6C0883909F4C7C0A8F48837C0
:1008700009F467C038F4883609F463C0803709F496
:1008800060C0C9C0883809F4B8C0803909F45FC0B5
:10089000803809F0C0C05BC0803B09F486C038F4E2
:1008A000803A09F466C0883A09F47FC0B4C0803C3D
:1008B00009F4A7C0883C09F4A4C0883B09F48AC0A5
:1008C000AAC08091730210C090917202809171024F
:1008D000981770F5E091720281E08E0F809372029A
:1008E000F0E0EF5AFD4F80818093BB0085EC86C01D
:1008F00080934D028EC0E091720281E08E0F809352
:1009000072028091BB00F0E0EF5AFD4F808390911E
:100910007202809171026EC0E091720281E08E0FCE
:10092000809372028091BB00F0E0EF5AFD4F80830C
:100930008091500281116DC081E080934F0284EA62
:1009400061C083E080934E0210924C02CFCF809121
:100950004C02803208F051C0E0914C0281E08E0FD1
:1009600080934C028091BB00F0E0E45DFD4F8083FA
:10097000BDCF85EC8093BC0010924E0280914C025A
:10098000803230F4E0914C02F0E0E45DFD4F1082E3
:1009900060914C0270E0E0912A02F0912B028CE20F
:1009A00092E0099510924C0236C084E080934E028A
:1009B0001092290210922802E0912602F09127025B
:1009C000099580912802811105C081E08093280259
:1009D00010920602E091290281E08E0F8093290295
:1009E000F0E0EA5FFD4F80818093BB009091290287
:1009F00080912802981708F479CF85E88093BC008D
:100A00000AC085EC8093BC0010924E0204C0109284
:100A10004D020E94FF01FF91EF91BF91AF919F9115
:100A20008F917F916F915F914F913F912F910F9097
:100A30000FBE0F901F9018954F925F926F927F920A
:100A40008F929F92AF92BF92CF92DF92EF92FF92DE
:100A50000F931F93CF93DF93EC016B018C819D81EA
:100A60008C010F5F1F4F8017910708F0AEC02A81DD
:100A70003B812017310708F062C009962817390713
:100A800008F05DC0888099809B838A832EE0AC014A
:100A9000249FC001259F900D11240E94780F9983F7
:100AA0008883740154E0E50EF11CA12CB12C612C5B
:100AB000712C3AEF432E31E0532E8C819D816816C4
:100AC0007906D0F5C4018A0D9B1DE881F981EA0DF4
:100AD000FB1D309729F151824082D70112972C914A
:100AE000228311962C912383D7012C912483119674
:100AF0004D915D916D917C911497458356836783E9
:100B00007087DC0119962C912187D70116964D919B
:100B10005D916D917C9119974287538764877587A2
:100B20000E945602BFEF6B1A7B0A4EE0A40EB11C66
:100B30005EE0E50EF11CC1CFC4010E940D104C8196
:100B40005D818EE0849FB001859F700D112480E04F
:100B500090E02AEFE22E21E0F22E4017510708F034
:100B600055C0E881F9819C01260F371FE20FF31F62
:100B7000309739F1F182E082D60112962C911297CA
:100B8000228313962C911397238314962C911497F8
:100B9000248315968D909D90AD90BC90189785827A
:100BA0009682A782B08619962C91199721871A965A
:100BB0008D909D90AD90BC901D9782869386A48663
:100BC000B5864F5F5F4F0E96C8CF0817190700F51F
:100BD0002EE0289F5001299FB00C11247801C12CD0
:100BE000D12C4EE0C40ED11C8C819D81E816F906F3
:100BF00068F428813981C5018C0D9D1D820F931FDA
:100C00000E945602BFEFEB1AFB0AEBCF1D830C8349
:100C1000DF91CF911F910F91FF90EF90DF90CF90D8
:100C2000BF90AF909F908F907F906F905F904F900C
:100C3000089508950F931F93CF93DF93C0E0D0E002
:100C400003E010E0FE01ED57FD4F2281418130812C
:100C5000CE01B8010E948712CB016091060370910A
:100C600007038617970718F4632F0E9469072396D6
:100C7000CC36D10539F7DF91CF911F910F910C94AC
:100C8000A9065F926F927F928F929F92AF92BF92CE
:100C9000CF92DF92EF92FF920F931F93CF93DF9348
:100CA0008C014A015B01C0E0D0E0F8016481C5809D
:100CB000D680E780F0847380528080910603909103
:100CC0000703C817D90750F570E080E090E00E9454
:100CD000B310A70196010E9412110E945312662EB2
:100CE000672D70E080E090E00E94B310A7019601AC
:100CF0000E9412110E945312762E652D70E080E042
:100D000090E00E94B310A70196010E9412110E9468
:100D10005312262D472DCE010E946907C501B4014B
:100D20000E9445090E94A9062196C432D10509F006
:100D3000BCCFDF91CF911F910F91FF90EF90DF908B
:100D4000CF90BF90AF909F908F907F906F905F906B
:100D500008950F931F93CF93DF93CDB7DEB72997F5
:100D60000FB6F894DEBF0FBECDBF80910C039091FB
:100D70000D03892B09F4A2C00E94200900911203DF
:100D8000109113032091140330911503DC01CB0162
:100D9000801B910BA20BB30B8C329140A105B105C6
:100DA00058F3F89480910803909109039A838983FA
:100DB000E0910C03F0910D03DF011196808189878A
:100DC00090910403E0911603F091170380911803AA
:100DD000992309F42EC09081982B98879081809553
:100DE00089238F838F818C8388E08B8358856F81E3
:100DF00049853B812C8189819A81508347FD252F2C
:100E00003A952083262F39F0441F00C000006083EC
:100E1000000000C0F2CF38E04D91608300000197E0
:100E200061F7F0931703E093160349873B832C8304
:100E300038C09081982B98879081809589238F83E3
:100E40008F818E8388E08D8358856F8149853D81B0
:100E50002E8189819A81508347FD252F00C000C0D3
:100E6000208300C000C000C000C000C0608300003C
:100E7000262F3A9541F0441F000000C000C000C07A
:100E800000C000C0E8CF38E04D9100C0608300C0D2
:100E9000019709F7F0931703E093160349873D8301
:100EA0002E839A83898378940E9420096093120389
:100EB00070931303809314039093150329960FB630
:100EC000F894DEBF0FBECDBFDF91CF911F910F9180
:100ED0000895DC0190910B03992361F0699FB001A3
:100EE0001124672F499FA0011124452F299F9001AC
:100EF0001124232F3091110380910E03E0910C03F4
:100F0000F0910D03381308C0CD01880F991F8A0F87
:100F10009B1F8E0F9F1F0BC0CD01880F991F880F3D
:100F2000991F8E0F9F1FFC01E30FF11D108230915E
:100F30000E03FC01E30FF11D608330910F03FC01F0
:100F4000E30FF11D408330911003FC01E30FF11D0D
:100F500020830895CF93DF93282F30E0F901E859DB
:100F6000FF4F8491F901E458FF4FD491F901E656FF
:100F7000FF4FC491CC2399F081110E949208EC2F6D
:100F8000F0E0EE0FFF1FE057FF4FA591B4918FB730
:100F9000F8949C91ED2FE095E923EC938FBFDF91BE
:100FA000CF910895CF92DF92EF92FF920F931F930C
:100FB000CF93DF936C017A018B01C0E0D0E0CE15B6
:100FC000DF0589F0D8016D918D01D601ED91FC917D
:100FD0000190F081E02DC6010995892B11F47E0165
:100FE00002C02196ECCFC701DF91CF911F910F91E5
:100FF000FF90EF90DF90CF900895FC01918D828D4E
:10100000981761F0828DDF01A80FB11D5D968C915C
:10101000928D9F5F9F73928F90E008958FEF9FEF67
:101020000895FC01918D828D981731F0828DE80F23
:10103000F11D858D90E008958FEF9FEF089589E46D
:1010400093E00E948D0021E0892B09F420E0822F9B
:101050000895EF92FF920F931F93CF93DF93EC01CC
:1010600081E0888F9B8D8C8D981305C0E889F98964
:10107000808185FD24C0F62E0B8D10E00F5F1F4F81
:101080000F731127E02E8C8DE8120CC00FB607FCF1
:10109000FACFE889F989808185FFF5CFCE010E94DA
:1010A000C003F1CF8B8DFE01E80FF11DE35AFF4F16
:1010B000F0820B8FEA89FB898081806207C0EE890C
:1010C000FF896083E889F98980818064808381E079
:1010D00090E0DF91CF911F910F91FF90EF900895D5
:1010E000CF93DF93EC01888D8823C9F0EA89FB89CF
:1010F000808185FD05C0A889B9898C9186FD0FC0C6
:101100000FB607FCF5CF808185FFF2CFA889B9899A
:101110008C9185FFEDCFCE010E94C003E7CFDF9118
:10112000CF910895833081F028F4813099F0823096
:10113000A1F008958730A9F08830B9F08430D1F457
:10114000809180008F7D03C0809180008F77809395
:101150008000089584B58F7702C084B58F7D84BDEB
:1011600008958091B0008F7703C08091B0008F7D8B
:101170008093B0000895CF93DF93282F30E0F901DA
:10118000E859FF4F8491F901E458FF4FD491F901D8
:10119000E656FF4FC491CC2391F081110E94920832
:1011A000EC2FF0E0EE0FFF1FE854FF4FA591B49134
:1011B000EC91ED2381E090E021F480E002C080E03A
:1011C00090E0DF91CF910895CF93DF9390E0FC0101
:1011D000E458FF4F2491FC01E656FF4F8491882389
:1011E00061F190E0880F991FFC01E255FF4FC59116
:1011F000D491FC01E057FF4FA591B491611109C052
:101200009FB7F8948881209582238883EC912E23C0
:101210000BC0623061F49FB7F8943881822F8095BB
:1012200083238883EC912E2B2C939FBF06C08FB70E
:10123000F894E8812E2B28838FBFDF91CF910895FA
:101240003FB7F8948091F5029091F602A091F702D1
:10125000B091F80226B5A89B05C02F3F19F0019662
:10126000A11DB11D3FBFBA2FA92F982F8827820F2C
:10127000911DA11DB11DBC01CD0142E0660F771F7C
:10128000881F991F4A95D1F708958F929F92AF9228
:10129000BF92CF92DF92EF92FF926B017C010E948E
:1012A00020094B015C01C114D104E104F104F1F007
:1012B0000E942009DC01CB0188199909AA09BB0900
:1012C000883E9340A105B10570F321E0C21AD10810
:1012D000E108F10888EE880E83E0981EA11CB11C7D
:1012E000C114D104E104F10419F7DDCFFF90EF90B0
:1012F000DF90CF90BF90AF909F908F9008951F92F6
:101300000F920FB60F9211242F933F938F939F93B9
:10131000AF93BF938091F1029091F202A091F302FA
:10132000B091F4023091F00223E0230F2D3720F426
:101330000196A11DB11D05C026E8230F0296A11D2F
:10134000B11D2093F0028093F1029093F202A093DA
:10135000F302B093F4028091F5029091F602A0910D
:10136000F702B091F8020196A11DB11D8093F5021C
:101370009093F602A093F702B093F802BF91AF9159
:101380009F918F913F912F910F900FBE0F901F90C3
:101390001895DC01ED91FC910190F081E02D09940C
:1013A0001F920F920FB60F9211242F933F934F93DA
:1013B0005F936F937F938F939F93AF93BF93EF93BD
:1013C000FF9389E493E00E94C003FF91EF91BF91E6
:1013D000AF919F918F917F916F915F914F913F91CD
:1013E0002F910F900FBE0F901F9018951F920F9284
:1013F0000FB60F9211242F938F939F93EF93FF9328
:10140000E0915903F0915A038081E0915F03F091DC
:10141000600382FD12C09081809162038F5F8F73A1
:1014200020916303821751F0E0916203F0E0E75BE3
:10143000FC4F958F8093620301C08081FF91EF91F3
:101440009F918F912F910F900FBE0F901F90189525
:101450004F925F926F927F92AF92BF92CF92DF9244
:10146000EF92FF920F931F93CF93DF93CDB7DEB729
:101470002E970FB6F894DEBF0FBECDBF89E493E080
:1014800010924C0310924B0348EEC42E43E0D42E2E
:10149000E12CF12CC0924D03D0924E03E0924F0309
:1014A000F092500322E331E030934A032093490342
:1014B00025EC30E0309356032093550324EC30E0C4
:1014C000309358032093570320EC30E030935A03B5
:1014D0002093590321EC30E030935C0320935B03AD
:1014E00022EC30E030935E0320935D0326EC30E085
:1014F0003093600320935F031092620310926303A2
:10150000109264031092650361E270E07093FE0331
:101510006093FD031092FF031092000410920104E7
:1015200056E0452E512C612C712C409202045092B1
:101530000304609204047092050410920604109251
:101540000704109208041092090440E240930A0430
:1015500010920C0410920B0410920F0428EE33E04A
:1015600030930E0420930D0420ED31E03093E70317
:101570002093E6032AED31E03093FB032093FA0336
:101580001092EC031092EB031092EE031092ED0315
:101590001092F0031092EF031092F2031092F103F5
:1015A0001092F4031092F3031092F6031092F503D5
:1015B0002EEA31E03093E9032093E8039093F90396
:1015C0008093F80350E15093F703709337036093CF
:1015D0003603109238031092390310923A03409266
:1015E0003B0350923C0360923D0370923E03109285
:1015F0003F03109240031092410310924203409324
:101600004303109245031092440310924803109232
:101610001D0310921E0310921F031092200341E23B
:1016200053E0509347034093460348E551E05093FD
:101630001C0340931B0342E651E050933403409354
:101640003303109225031092240310922703109263
:101650002603109229031092280310922B03109254
:101660002A0310922D0310922C0310922F03109234
:101670002E0330932203209321039093320380930F
:10168000310328E02093300390931A0380931903C9
:1016900064EB71E08CEC91E00E94110F10927A02E1
:1016A00010927902C0927B02D0927C02E0927D027D
:1016B000F0927E028AEE91E0909378028093770216
:1016C0001092050310920B03109212031092130351
:1016D000109214031092150381E0809311038093FC
:1016E0000E0310920F0392E0909310038093040373
:1016F0008CE690E090930903809308030E94780F92
:1017000090930D0380930C03009761F02CE6FC018D
:1017100011922A95E9F784E290E090930703809371
:10172000060308C0109209031092080310920703E1
:101730001092060385E080930A03809105038823B5
:1017400039F061E085E00E94E40885E00E94AA0784
:10175000EFE9F0E0E491F0E0EE0FFF1FE057FF4FFC
:10176000859194919093170380931603E1E8F0E03C
:10177000E491E093180382E092E09093FA02809360
:10178000F90288E090E09093FE028093FD021092AF
:1017900000031092FF0280E790E00E94780F909380
:1017A000FC028093FB0210920303109202039AEF53
:1017B000A92E91E0B92EBA82A9821B821C821D82B9
:1017C000412C512C20E8622E2FE3722E4E825F8234
:1017D0006886798601E00A873AE0C32E37EDD32E7A
:1017E00033E2E32E3CE3F32ECB86DC86ED86FE86E9
:1017F000BE016F5F7F4F8BEF92E00E941C05BA82A3
:10180000A9821FEF1B831C821D824E825F82688625
:1018100079860A87CB86DC86ED86FE86BE016F5F01
:101820007F4F8BEF92E00E941C05BA82A9821B8237
:101830001C831D824E825F82688679860A87CB86EA
:10184000DC86ED86FE86BE016F5F7F4F8BEF92E0F8
:101850000E941C05BA82A9821B821C821D834E82B3
:101860005F82688679860A87CB86DC86ED86FE866F
:10187000BE016F5F7F4F8BEF92E00E941C05BA8222
:10188000A9821B831C831D834E825F8268867986B2
:101890000A87CB86DC86ED86FE86BE016F5F7F4FB2
:1018A0008BEF92E00E941C05BA82A9821B831C83E5
:1018B00086E38D834E825F82688679860A87CB862F
:1018C000DC86ED86FE86BE016F5F7F4F8BEF92E078
:1018D0000E941C05BA82A9821B831C821D834E8232
:1018E0005F82688679860A87CB86DC86ED86FE86EF
:1018F000BE016F5F7F4F8BEF92E00E941C05BA82A2
:10190000A9821B831C831D824E825F826886798632
:101910000A87CB86DC86ED86FE86BE016F5F7F4F31
:101920008BEF92E00E941C05BA82A98283E98B8327
:101930001C831D824E825F82688679860A87CB86E9
:10194000DC86ED86FE86BE016F5F7F4F8BEF92E0F7
:101950000E941C05BA82A9821B8385EA8C831D82A2
:101960004E825F82688679860A87CB86DC86ED8622
:10197000FE86BE016F5F7F4F8BEF92E00E941C05D9
:101980002E960FB6F894DEBF0FBECDBFDF91CF917C
:101990001F910F91FF90EF90DF90CF90BF90AF908D
:1019A0007F906F905F904F900895CF93DF93CDB766
:1019B000DEB72F970FB6F894DEBF0FBECDBF789479
:1019C00084B5826084BD84B5816084BD85B5826044
:1019D00085BD85B5816085BD80916E0081608093F5
:1019E0006E0010928100809181008260809381005E
:1019F000809181008160809381008091800081606E
:101A0000809380008091B10084608093B1008091C8
:101A1000B00081608093B00080917A0084608093F0
:101A20007A0080917A00826080937A0080917A00B7
:101A3000816080937A0080917A00806880937A0038
:101A40001092C10080910A0387FD07C061E00E94E7
:101A5000E40880910A030E94AA0781E080930503AD
:101A60000E94A90633E8E32E32E0F32E00E010E0F6
:101A70000F5F1F4FC8010E94D011F70181937F01B2
:101A80000C361105A9F70E941A06E0915903F0914E
:101A90005A0382E08083E0915503F091560310824F
:101AA000E0915703F091580387E08083109261031F
:101AB000E0915D03F0915E0386E08083E0915B033B
:101AC000F0915C03808180618083E0915B03F09101
:101AD0005C03808188608083E0915B03F0915C030C
:101AE000808180688083E0915B03F0915C0380815A
:101AF0008F7D808360E08AE00E94E40860E084E0FB
:101B00000E94E40861E08DE00E94E408E3E8F2E06E
:101B1000119282E0EF3EF807D9F79EE0D92E2AEF26
:101B2000E22E21E0F22ECC24C39489E493E00E94BB
:101B30008D00892B09F0B1C084E00E94BB08892B7D
:101B400009F44FC080910203909103030196909392
:101B50000303809302034091FF0250910003841716
:101B6000950720F0109203031092020320910203C4
:101B7000309103032417350710F00E94B512D29E4E
:101B8000C001D39E900D1124E091FB02F091FC0264
:101B9000E80FF91FFA82E98282818B8383818C832B
:101BA00084818D8385819681A781B0858E839F8373
:101BB000A887B98781858A8782859385A485B5851D
:101BC0008B879C87AD87BE874AE050E060E070E07D
:101BD000CE0101960E94410664EF71E080E090E042
:101BE00000C18AE00E94BB08892B09F456C080918D
:101BF0000203909103032091FF02309100038217AA
:101C0000930708F0BACFD89E9001D99E300D1124C9
:101C10000091FB021091FC02020F131FF801818555
:101C20008823F9F022853385448555856581768141
:101C3000878190850E94E7114B015C0120E030E034
:101C400040E85FE30E94821287FDA0C080E090E040
:101C5000A0E8BFE3F80185839683A783B087118648
:101C60009AC0F80122853385448555856581768142
:101C7000878190850E94E6114B015C0120E030E0F5
:101C8000A9010E94AC10F80118160CF480C015824E
:101C9000168217821086C1867EC089E493E00E9476
:101CA0008D00892B09F49FC003E812E02FB7F89448
:101CB0008091F1029091F202A091F302B091F402AE
:101CC0002FBF8093510390935203A0935303B0937B
:101CD0005403E0914903F0914A030680F781E02D17
:101CE00089E493E0099597FD0DC0F80181938F0178
:101CF000F2E0003F1F07D1F68091EF02813009F03A
:101D00003EC025C02FB7F8948091F1029091F20265
:101D1000A091F302B091F4022FBF40915103509172
:101D200052036091530370915403841B950BA60BCF
:101D3000B70B40914D0350914E0360914F0370914A
:101D4000500384179507A607B70718F2D5CF83E885
:101D5000A82E82E0B82E00E010E0F50161915F014D
:101D60000F5F1F4FC8016F870E94D0116F856817E2
:101D700019F0C8010E94D8110C36110571F7809135
:101D8000EF02811130C00E941A062DC0F801858231
:101D90009682A782B086FA82E982F80182818B83DB
:101DA00083818C8384818D8385819681A781B08591
:101DB0008E839F83A887B98781858A87828593854B
:101DC000A485B5858B879C87AD87BE8740E050E0B2
:101DD000BA01CE0101960E94410664E070E080E005
:101DE00090E00E9445090E9499009FCE89EF92E001
:101DF0000E94730380910C0390910D03009711F0E2
:101E00000E940D1080910A0387FD03C060E00E94CC
:101E1000E4088BE193E00E94F80286EE93E00C94D4
:101E200046030F931F93CF93DF93009731F461150F
:101E3000710519F480E090E03AC08B01EC016EE08E
:101E400070E081E090E00E945C0FFC01892B91F32F
:101E500080E883830115110571F01387028781E8FB
:101E600083838091100490911104892B21F4F093C5
:101E70001104E09310042097C9F0D187C0878381B3
:101E8000826083838091120490911304892B71F4F2
:101E9000F0931304E09312048091140490911504BC
:101EA000892B21F4F0931504E0931404CF01DF9102
:101EB000CF911F910F9108950F931F93CF93DF93AD
:101EC000869F8001879F100D969F100D1124C801D9
:101ED0000E94780FEC01009729F0A80160E070E003
:101EE0000E94A510CE01DF91CF911F910F9108950F
:101EF000CF93DF938230910510F482E090E0E0917F
:101F00001804F091190420E030E0C0E0D0E03097F0
:101F100011F14081518148175907C0F048175907FE
:101F200061F482819381209719F09B838A832BC06F
:101F3000909319048093180426C02115310519F0D7
:101F40004217530718F49A01BE01DF01EF01028026
:101F5000F381E02DDCCF2115310509F1281B390B68
:101F60002430310590F412968D919C911397611550
:101F7000710521F0FB019383828304C090931904BF
:101F800080931804FD01329644C0FD01E20FF31F57
:101F900081939193225031092D933C933AC0209123
:101FA000160430911704232B41F420910201309143
:101FB00003013093170420931604209100013091FF
:101FC00001012115310541F42DB73EB740910401BF
:101FD00050910501241B350BE0911604F091170474
:101FE000E217F307A0F42E1B3F0B2817390778F0F0
:101FF000AC014E5F5F4F2417350748F04E0F5F1F4F
:1020000050931704409316048193919302C0E0E02B
:10201000F0E0CF01DF91CF9108950F931F93CF93FD
:10202000DF93009709F48CC0FC013297138212826F
:1020300000911804109119040115110581F42081F3
:102040003181820F931F20911604309117042817B5
:10205000390779F5F0931704E093160471C0D8019D
:1020600040E050E0AE17BF0750F412962D913C911E
:102070001397AD012115310509F1D901F3CF9D0168
:10208000DA013383228360817181860F971F821763
:10209000930769F4EC0128813981260F371F2E5FE1
:1020A0003F4F318320838A819B8193838283452B99
:1020B00029F4F0931904E093180442C01396FC939A
:1020C000EE931297ED01499159919E01240F351F0E
:1020D000E217F30771F480819181840F951F0296B6
:1020E00011969C938E938281938113969C938E93E9
:1020F0001297E0E0F0E0D80112968D919C91139731
:10210000009719F0F8018C01F6CF8D919C91980100
:102110002E5F3F4F820F931F2091160430911704BA
:102120002817390769F4309729F41092190410928E
:10213000180402C01382128210931704009316042D
:10214000DF91CF911F910F910895DC0101C06D9334
:1021500041505040E0F708950E94EE1008F481E0ED
:102160000895E89409C097FB3EF49095809570958A
:1021700061957F4F8F4F9F4F9923A9F0F92F96E9D3
:10218000BB279395F695879577956795B795F11148
:10219000F8CFFAF4BB0F11F460FF1BC06F5F7F4FE5
:1021A0008F4F9F4F16C0882311F096E911C07723F7
:1021B00021F09EE8872F762F05C0662371F096E800
:1021C000862F70E060E02AF09A95660F771F881FCF
:1021D000DAF7880F9695879597F90895990F000873
:1021E000550FAA0BE0E8FEEF16161706E807F907E9
:1021F000C0F012161306E407F50798F0621B730B84
:10220000840B950B39F40A2661F0232B242B252B04
:1022100021F408950A2609F4A140A6958FEF811DA7
:10222000811D08950E9425110C9496110E94881119
:1022300038F00E948F1120F0952311F00C947F113B
:102240000C94851111240C94CA110E94A71170F3EB
:10225000959FC1F3950F50E0551F629FF001729F4B
:10226000BB27F00DB11D639FAA27F00DB11DAA1F5A
:10227000649F6627B00DA11D661F829F2227B00DA7
:10228000A11D621F739FB00DA11D621F839FA00D32
:10229000611D221F749F3327A00D611D231F849F82
:1022A000600D211D822F762F6A2F11249F575040D9
:1022B0009AF0F1F088234AF0EE0FFF1FBB1F661F54
:1022C000771F881F91505040A9F79E3F510580F01D
:1022D0000C947F110C94CA115F3FE4F3983ED4F341
:1022E000869577956795B795F795E7959F5FC1F7C1
:1022F000FE2B880F911D9695879597F9089597F96C
:102300009F6780E870E060E008959FEF80EC08959B
:1023100000240A94161617061806090608950024C4
:102320000A9412161306140605060895092E03943E
:10233000000C11F4882352F0BB0F40F4BF2B11F4B2
:1023400060FF04C06F5F7F4F8F4F9F4F089557FD11
:102350009058440F551F59F05F3F71F04795880F13
:1023600097FB991F61F09F3F79F0879508951216AA
:1023700013061406551FF2CF4695F1DF08C0161656
:1023800017061806991FF1CF869571056105089407
:102390000895E894BB2766277727CB0197F908951E
:1023A000F999FECF92BD81BDF89A992780B508951D
:1023B000262FF999FECF1FBA92BD81BD20BD0FB661
:1023C000F894FA9AF99A0FBE019608955058BB27CF
:1023D000AA270E94FE110C9496110E94881138F0D1
:1023E0000E948F1120F039F49F3F19F426F40C94C9
:1023F00085110EF4E095E7FB0C947F11E92F0E9404
:10240000A71158F3BA17620773078407950720F0DE
:1024100079F4A6F50C94C9110EF4E0950B2EBA2FA1
:10242000A02D0B01B90190010C01CA01A0011124DA
:10243000FF27591B99F0593F50F4503E68F11A1686
:10244000F040A22F232F342F4427585FF3CF469517
:1024500037952795A795F0405395C9F77EF41F1639
:10246000BA0B620B730B840BBAF09150A1F0FF0F03
:10247000BB1F661F771F881FC2F70EC0BA0F621FEF
:10248000731F841F48F4879577956795B795F795DF
:102490009E3F08F0B0CF9395880F08F09927EE0F74
:1024A0009795879508950E94AF1188F09F5798F0EF
:1024B000B92F9927B751B0F0E1F0660F771F881F49
:1024C000991F1AF0BA95C9F714C0B13091F00E9463
:1024D000C911B1E008950C94C911672F782F88278E
:1024E000B85F39F0B93FCCF3869577956795B3958A
:1024F000D9F73EF490958095709561957F4F8F4FF9
:102500009F4F08950E94EE1008F48FEF089597FBF7
:10251000072E16F4009407D077FD09D00E949B1275
:1025200007FC05D03EF4909581959F4F08957095D6
:1025300061957F4F0895AA1BBB1B51E107C0AA1FDD
:10254000BB1FA617B70710F0A61BB70B881F991F54
:102550005A95A9F780959095BC01CD010895EE0F8D
:10256000FF1F0590F491E02D099481E090E0F8942C
:102570000C94BA1210E0C2E6D0E004C0FE010E9442
:0E258000AF122196C336D107C9F7F894FFCFEA
:10258E0000001A0480001800000000000000000087
:10259E00E8FFE8FF0000000000001400000000004B
:1025AE0000000000ECFFECFF000000000000000047
:1025BE0000002908D2078D00FD07110870080600DB
:1025CE0000000000D702D902FAFFFAFF0000D8027D
:1025DE00DB02180000000000F8020F03E8FFE8FF1E
:1025EE0000000503190358010C01160162010000D9
:1025FE000000E103D502B301B001AD01AA01A701AC
:10260E001E011A01170101012101A500A3000200FC
:10261E000000000025032703FEFFFEFF0000260337
:10262E00290300000000E303710300000000E20331
:10263E002303B301B001AD01AA01A7019B0155010E
:10264E003C012301210180025F0214000000000002
:10265E0046035D03ECFFECFF000053036703D0015C
:10266E0020012A01DA010000000045023102F801C2
:10267E00F501F201F101000000001906D30200007D
:06268E0000007303B60317
:00000001FF
